{
	"data": {
		"bytecode": {
			"linkReferences": {},
			"object": "608060405234801561001057600080fd5b506000805460ff196101003302166001600160a81b03199091161781556001556132388061003f6000396000f3fe6080604052600436106101145760003560e01c806351b42b00116100a05780639812376011610064578063981237601461032d578063a1e5084c1461034d578063c4c7cbfc1461036d578063d993de6214610390578063f14faf6f146103c057600080fd5b806351b42b001461027c5780635598f8cc146102915780636caa9218146102be578063732435b2146102d35780638e3dfbbb1461030057600080fd5b806336738c1e116100e757806336738c1e146101c05780633de1bb15146101ef57806344f72bad1461020f5780634933e6311461022f5780634eac08ea1461024f57600080fd5b80630f15f4c014610119578063141961bc1461013057806319ac74bd1461017257806331ea5a45146101a0575b600080fd5b34801561012557600080fd5b5061012e6103d3565b005b34801561013c57600080fd5b5061015061014b366004612437565b6104a9565b6040516101699d9c9b9a99989796959493929190612496565b60405180910390f35b34801561017e57600080fd5b5061019261018d366004612570565b6107c8565b604051908152602001610169565b3480156101ac57600080fd5b5061012e6101bb36600461267a565b6107f9565b3480156101cc57600080fd5b506101e06101db3660046126ca565b6109d0565b604051610169939291906126f6565b3480156101fb57600080fd5b5061012e61020a366004612729565b610ab8565b34801561021b57600080fd5b5061012e61022a36600461275b565b610d28565b34801561023b57600080fd5b5061019261024a366004612570565b610eb2565b34801561025b57600080fd5b5061026f61026a366004612729565b610ece565b60405161016991906127bc565b34801561028857600080fd5b5061012e610ffd565b34801561029d57600080fd5b506102b16102ac366004612437565b6110ba565b604051610169919061298a565b3480156102ca57600080fd5b50600154610192565b3480156102df57600080fd5b506102f36102ee366004612b22565b61181d565b6040516101699190612b44565b34801561030c57600080fd5b5061032061031b366004612437565b611889565b6040516101699190612b88565b34801561033957600080fd5b50610192610348366004612e4f565b611a5e565b34801561035957600080fd5b506102f3610368366004612b22565b611e41565b34801561037957600080fd5b5060005460ff166040519015158152602001610169565b34801561039c57600080fd5b506103b06103ab366004612437565b611eab565b6040516101699493929190612f7e565b61012e6103ce366004612437565b61215f565b60005461010090046001600160a01b0316331461040b5760405162461bcd60e51b815260040161040290612fd6565b60405180910390fd5b60005460ff161561045e5760405162461bcd60e51b815260206004820152601d60248201527f436f6e747261637420697320616c7265616479206163746976617465640000006044820152606401610402565b6000805460ff1916600117905560405133907f801e55ebf9b7ad844bb66232b3193f546d19545f36313c217d1ff9bf70fa63969061049f9042815260200190565b60405180910390a2565b600260208190526000918252604090912080546001820154928201805491936001600160a01b031692916104dc90613017565b80601f016020809104026020016040519081016040528092919081815260200182805461050890613017565b80156105555780601f1061052a57610100808354040283529160200191610555565b820191906000526020600020905b81548152906001019060200180831161053857829003601f168201915b50505050509080600301805461056a90613017565b80601f016020809104026020016040519081016040528092919081815260200182805461059690613017565b80156105e35780601f106105b8576101008083540402835291602001916105e3565b820191906000526020600020905b8154815290600101906020018083116105c657829003601f168201915b5050505050908060040180546105f890613017565b80601f016020809104026020016040519081016040528092919081815260200182805461062490613017565b80156106715780601f1061064657610100808354040283529160200191610671565b820191906000526020600020905b81548152906001019060200180831161065457829003601f168201915b5050505050908060050154908060060154908060070154908060080154908060090160009054906101000a900460ff169080600d01549080600e0180546106b790613017565b80601f01602080910402602001604051908101604052809291908181526020018280546106e390613017565b80156107305780601f1061070557610100808354040283529160200191610730565b820191906000526020600020905b81548152906001019060200180831161071357829003601f168201915b50505050509080600f01805461074590613017565b80601f016020809104026020016040519081016040528092919081815260200182805461077190613017565b80156107be5780601f10610793576101008083540402835291602001916107be565b820191906000526020600020905b8154815290600101906020018083116107a157829003601f168201915b505050505090508d565b600460205281600052604060002081815481106107e457600080fd5b90600052602060002001600091509150505481565b600083815260026020526040902060018101546001600160a01b031633146108815760405162461bcd60e51b815260206004820152603560248201527f4f6e6c792063616d706169676e2063726561746f722063616e207375626d69746044820152741036b4b632b9ba37b7329031b7b6b83632ba34b7b760591b6064820152608401610402565b600c81015483106108a45760405162461bcd60e51b815260040161040290613051565b80600c0183815481106108b9576108b9613088565b600091825260209091206002600690920201015460ff161561091d5760405162461bcd60e51b815260206004820152601b60248201527f4d696c6573746f6e6520616c726561647920636f6d706c6574656400000000006044820152606401610402565b8181600c01848154811061093357610933613088565b9060005260206000209060060201600301908161095091906130ed565b50600181600c01848154811061096857610968613088565b906000526020600020906006020160050160006101000a81548160ff021916908315150217905550837f1b7218c0ac23ea9cbe4df603d2b340fbf469a115b73ea3d11460727f445d6be1846040516109c291815260200190565b60405180910390a250505050565b600360205282600052604060002060205281600052604060002081815481106109f857600080fd5b60009182526020909120600390910201805460018201805460ff9092169550919350909150610a2690613017565b80601f0160208091040260200160405190810160405280929190818152602001828054610a5290613017565b8015610a9f5780601f10610a7457610100808354040283529160200191610a9f565b820191906000526020600020905b815481529060010190602001808311610a8257829003601f168201915b505050600290930154919250506001600160a01b031683565b600082815260026020526040902060018101546001600160a01b03163314610b325760405162461bcd60e51b815260206004820152602760248201527f4f6e6c792063616d706169676e2063726561746f722063616e2072656c656173604482015266652066756e647360c81b6064820152608401610402565b600c8101548210610b555760405162461bcd60e51b815260040161040290613051565b80600c018281548110610b6a57610b6a613088565b906000526020600020906006020160020160019054906101000a900460ff1615610bcf5760405162461bcd60e51b8152602060048201526016602482015275119d5b991cc8185b1c9958591e481c995b19585cd95960521b6044820152606401610402565b600081600c018381548110610be657610be6613088565b906000526020600020906006020160010154905080471015610c4a5760405162461bcd60e51b815260206004820152601d60248201527f496e73756666696369656e7420636f6e74726163742062616c616e63650000006044820152606401610402565b600182600c018481548110610c6157610c61613088565b906000526020600020906006020160020160016101000a81548160ff0219169083151502179055508082600c018481548110610c9f57610c9f613088565b6000918252602082206004600690920201019190915560018301546040516001600160a01b039091169183156108fc02918491818181858888f19350505050158015610cef573d6000803e3d6000fd5b50604080518481526020810183905285917f24d2f6e8ac6c13d1e7610752ab0b7ce03d5043806a65d3d631ae859ad81d159b91016109c2565b6000848152600260205260409020600c8101548410610d595760405162461bcd60e51b815260040161040290613051565b80600c018481548110610d6e57610d6e613088565b600091825260209091206005600690920201015460ff16610dd15760405162461bcd60e51b815260206004820152601a60248201527f4d696c6573746f6e65206e6f7420756e646572207265766965770000000000006044820152606401610402565b60408051606081018252841515815260208082018581523383850152600089815260038084528582208a8352845294812080546001808201835591835293909120845193909502909401805460ff1916921515929092178255519192839290820190610e3d90826130ed565b5060409182015160029190910180546001600160a01b0319166001600160a01b0390921691909117905580518681523360208201528515159181019190915286907ecc95dc6fc44cd34d3ab5cf073428f6b31b3507c6eff788412e3fe623f1e08b9060600160405180910390a2505050505050565b600560205281600052604060002081815481106107e457600080fd5b60008281526003602090815260408083208484528252808320805482518185028101850190935280835260609492939192909184015b82821015610ff0576000848152602090819020604080516060810190915260038502909101805460ff16151582526001810180549293919291840191610f4990613017565b80601f0160208091040260200160405190810160405280929190818152602001828054610f7590613017565b8015610fc25780601f10610f9757610100808354040283529160200191610fc2565b820191906000526020600020905b815481529060010190602001808311610fa557829003601f168201915b5050509183525050600291909101546001600160a01b03166020918201529082526001929092019101610f04565b5050505090505b92915050565b60005461010090046001600160a01b0316331461102c5760405162461bcd60e51b815260040161040290612fd6565b60005460ff1661107e5760405162461bcd60e51b815260206004820152601f60248201527f436f6e747261637420697320616c7265616479206465616374697661746564006044820152606401610402565b6000805460ff1916905560405142815233907fa4a2bc7fc83a0add711de3f3eb118134ec939b9730e90f1816708b39226940729060200161049f565b61114c6040518061022001604052806000815260200160006001600160a01b0316815260200160608152602001606081526020016060815260200160008152602001600081526020016000815260200160008152602001600015158152602001606081526020016060815260200160608152602001600081526020016060815260200160608152602001606081525090565b6000828152600260208181526040928390208351610220810185528154815260018201546001600160a01b0316928101929092529182018054919384019161119390613017565b80601f01602080910402602001604051908101604052809291908181526020018280546111bf90613017565b801561120c5780601f106111e15761010080835404028352916020019161120c565b820191906000526020600020905b8154815290600101906020018083116111ef57829003601f168201915b5050505050815260200160038201805461122590613017565b80601f016020809104026020016040519081016040528092919081815260200182805461125190613017565b801561129e5780601f106112735761010080835404028352916020019161129e565b820191906000526020600020905b81548152906001019060200180831161128157829003601f168201915b505050505081526020016004820180546112b790613017565b80601f01602080910402602001604051908101604052809291908181526020018280546112e390613017565b80156113305780601f1061130557610100808354040283529160200191611330565b820191906000526020600020905b81548152906001019060200180831161131357829003601f168201915b50505050508152602001600582015481526020016006820154815260200160078201548152602001600882015481526020016009820160009054906101000a900460ff16151515158152602001600a8201805480602002602001604051908101604052809291908181526020016000905b8282101561144d5783829060005260206000200180546113c090613017565b80601f01602080910402602001604051908101604052809291908181526020018280546113ec90613017565b80156114395780601f1061140e57610100808354040283529160200191611439565b820191906000526020600020905b81548152906001019060200180831161141c57829003601f168201915b5050505050815260200190600101906113a1565b505050508152602001600b82018054806020026020016040519081016040528092919081815260200182805480156114ae57602002820191906000526020600020905b81546001600160a01b03168152600190910190602001808311611490575b50505050508152602001600c8201805480602002602001604051908101604052809291908181526020016000905b8282101561167e57838290600052602060002090600602016040518060e001604052908160008201805461150f90613017565b80601f016020809104026020016040519081016040528092919081815260200182805461153b90613017565b80156115885780601f1061155d57610100808354040283529160200191611588565b820191906000526020600020905b81548152906001019060200180831161156b57829003601f168201915b505050918352505060018201546020820152600282015460ff8082161515604084015261010090910416151560608201526003820180546080909201916115ce90613017565b80601f01602080910402602001604051908101604052809291908181526020018280546115fa90613017565b80156116475780601f1061161c57610100808354040283529160200191611647565b820191906000526020600020905b81548152906001019060200180831161162a57829003601f168201915b5050509183525050600482015460208083019190915260059092015460ff16151560409091015290825260019290920191016114dc565b505050508152602001600d8201548152602001600e820180546116a090613017565b80601f01602080910402602001604051908101604052809291908181526020018280546116cc90613017565b80156117195780601f106116ee57610100808354040283529160200191611719565b820191906000526020600020905b8154815290600101906020018083116116fc57829003601f168201915b50505050508152602001600f8201805461173290613017565b80601f016020809104026020016040519081016040528092919081815260200182805461175e90613017565b80156117ab5780601f10611780576101008083540402835291602001916117ab565b820191906000526020600020905b81548152906001019060200180831161178e57829003601f168201915b505050505081526020016010820180548060200260200160405190810160405280929190818152602001828054801561180d57602002820191906000526020600020905b81546001600160a01b031681526001909101906020018083116117ef575b5050505050815250509050919050565b6001600160a01b03811660009081526005602090815260409182902080548351818402810184019094528084526060939283018282801561187d57602002820191906000526020600020905b815481526020019060010190808311611869575b50505050509050919050565b6118d46040518060e001604052806000815260200160006001600160a01b03168152602001606081526020016060815260200160008152602001600081526020016000151581525090565b600082815260026020818152604092839020835160e0810185528154815260018201546001600160a01b0316928101929092529182018054929391929183019161191d90613017565b80601f016020809104026020016040519081016040528092919081815260200182805461194990613017565b80156119965780601f1061196b57610100808354040283529160200191611996565b820191906000526020600020905b81548152906001019060200180831161197957829003601f168201915b505050505081526020018260040180546119af90613017565b80601f01602080910402602001604051908101604052809291908181526020018280546119db90613017565b8015611a285780601f106119fd57610100808354040283529160200191611a28565b820191906000526020600020905b815481529060010190602001808311611a0b57829003601f168201915b5050509183525050600583015460208201526006830154604082015260099092015460ff16151560609092019190915292915050565b6000805460ff16611ab15760405162461bcd60e51b815260206004820152601960248201527f436f6e7472616374206973206e6f7420616374697661746564000000000000006044820152606401610402565b60008a5111611afa5760405162461bcd60e51b81526020600482015260156024820152745469746c652063616e6e6f7420626520656d70747960581b6044820152606401610402565b60008711611b555760405162461bcd60e51b815260206004820152602260248201527f476f616c20616d6f756e74206d7573742062652067726561746572207468616e604482015261020360f41b6064820152608401610402565b60008611611ba55760405162461bcd60e51b815260206004820152601f60248201527f4475726174696f6e206d7573742062652067726561746572207468616e2030006044820152606401610402565b6000845111611c015760405162461bcd60e51b815260206004820152602260248201527f4174206c65617374206f6e65206d696c6573746f6e6520697320726571756972604482015261195960f21b6064820152608401610402565b6001805460009182611c12836131c3565b9091555060008181526002602081905260409091208281556001810180546001600160a01b031916331790559192508101611c4d8d826130ed565b5060038101611c5c8c826130ed565b5060048101611c6b8b826130ed565b50600581018990556007810188905542600882015560098101805460ff191660011790558651611ca490600a83019060208a0190612311565b50600f8101611cb386826130ed565b508351611cc99060108301906020870190612367565b5060005b8651811015611da35781600c01878281518110611cec57611cec613088565b60209081029190910181015182546001810184556000938452919092208251600690920201908190611d1e90826130ed565b50602082015160018201556040820151600282018054606085015115156101000261ff00199315159390931661ffff199091161791909117905560808201516003820190611d6c90826130ed565b5060a0820151600482015560c0909101516005909101805460ff191691151591909117905580611d9b816131c3565b915050611ccd565b5060046000336001600160a01b03166001600160a01b03168152602001908152602001600020829080600181540180825580915050600190039060005260206000200160009091909190915055336001600160a01b0316827fc04c663886cae794dc52158f70fe6c8ee3b0140d4f48647282f9b693ff688a658e604051611e2a91906131dc565b60405180910390a3509a9950505050505050505050565b6001600160a01b03811660009081526004602090815260409182902080548351818402810184019094528084526060939283018282801561187d57602002820191906000526020600020908154815260200190600101908083116118695750505050509050919050565b60608060608060006002600087815260200190815260200160002090508060030181600e0182600f0183600a01838054611ee490613017565b80601f0160208091040260200160405190810160405280929190818152602001828054611f1090613017565b8015611f5d5780601f10611f3257610100808354040283529160200191611f5d565b820191906000526020600020905b815481529060010190602001808311611f4057829003601f168201915b50505050509350828054611f7090613017565b80601f0160208091040260200160405190810160405280929190818152602001828054611f9c90613017565b8015611fe95780601f10611fbe57610100808354040283529160200191611fe9565b820191906000526020600020905b815481529060010190602001808311611fcc57829003601f168201915b50505050509250818054611ffc90613017565b80601f016020809104026020016040519081016040528092919081815260200182805461202890613017565b80156120755780601f1061204a57610100808354040283529160200191612075565b820191906000526020600020905b81548152906001019060200180831161205857829003601f168201915b5050505050915080805480602002602001604051908101604052809291908181526020016000905b828210156121495783829060005260206000200180546120bc90613017565b80601f01602080910402602001604051908101604052809291908181526020018280546120e890613017565b80156121355780601f1061210a57610100808354040283529160200191612135565b820191906000526020600020905b81548152906001019060200180831161211857829003601f168201915b50505050508152602001906001019061209d565b5050505090509450945094509450509193509193565b600034116121be5760405162461bcd60e51b815260206004820152602660248201527f446f6e6174696f6e20616d6f756e74206d75737420626520677265617465722060448201526507468616e20360d41b6064820152608401610402565b6000818152600260205260409020600981015460ff166122195760405162461bcd60e51b815260206004820152601660248201527543616d706169676e206973206e6f742061637469766560501b6044820152606401610402565b8060070154816008015461222d91906131ef565b42106122705760405162461bcd60e51b815260206004820152601260248201527110d85b5c185a59db881a185cc8195b99195960721b6044820152606401610402565b3481600601600082825461228491906131ef565b9091555050600b81018054600181810183556000928352602080842090920180546001600160a01b0319163390811790915580845260058352604080852080549384018155855292909320018490555183907f0b5b4c52969ff7329ecf7ee536409fda87812b15a8622bc6e8cdeab3aee14a26906123059034815260200190565b60405180910390a35050565b828054828255906000526020600020908101928215612357579160200282015b82811115612357578251829061234790826130ed565b5091602001919060010190612331565b506123639291506123c8565b5090565b8280548282559060005260206000209081019282156123bc579160200282015b828111156123bc57825182546001600160a01b0319166001600160a01b03909116178255602090920191600190910190612387565b506123639291506123e5565b808211156123635760006123dc82826123fa565b506001016123c8565b5b8082111561236357600081556001016123e6565b50805461240690613017565b6000825580601f10612416575050565b601f01602090049060005260206000209081019061243491906123e5565b50565b60006020828403121561244957600080fd5b5035919050565b6000815180845260005b818110156124765760208185018101518683018201520161245a565b506000602082860101526020601f19601f83011685010191505092915050565b8d81526001600160a01b038d1660208201526101a0604082015260006124c06101a083018e612450565b82810360608401526124d2818e612450565b905082810360808401526124e6818d612450565b90508a60a08401528960c08401528860e08401528761010084015261251061012084018815159052565b8561014084015282810361016084015261252a8186612450565b905082810361018084015261253f8185612450565b9150509e9d5050505050505050505050505050565b80356001600160a01b038116811461256b57600080fd5b919050565b6000806040838503121561258357600080fd5b61258c83612554565b946020939093013593505050565b634e487b7160e01b600052604160045260246000fd5b60405160e0810167ffffffffffffffff811182821017156125d3576125d361259a565b60405290565b604051601f8201601f1916810167ffffffffffffffff811182821017156126025761260261259a565b604052919050565b600082601f83011261261b57600080fd5b813567ffffffffffffffff8111156126355761263561259a565b612648601f8201601f19166020016125d9565b81815284602083860101111561265d57600080fd5b816020850160208301376000918101602001919091529392505050565b60008060006060848603121561268f57600080fd5b8335925060208401359150604084013567ffffffffffffffff8111156126b457600080fd5b6126c08682870161260a565b9150509250925092565b6000806000606084860312156126df57600080fd5b505081359360208301359350604090920135919050565b83151581526060602082015260006127116060830185612450565b905060018060a01b0383166040830152949350505050565b6000806040838503121561273c57600080fd5b50508035926020909101359150565b8035801515811461256b57600080fd5b6000806000806080858703121561277157600080fd5b84359350602085013592506127886040860161274b565b9150606085013567ffffffffffffffff8111156127a457600080fd5b6127b08782880161260a565b91505092959194509250565b60006020808301818452808551808352604092508286019150828160051b87010184880160005b8381101561283a57603f198984030185528151606081511515855288820151818a87015261281382870182612450565b928901516001600160a01b03169589019590955250948701949250908601906001016127e3565b509098975050505050505050565b600081518084526020808501808196508360051b8101915082860160005b8581101561289057828403895261287e848351612450565b98850198935090840190600101612866565b5091979650505050505050565b600081518084526020808501945080840160005b838110156128d65781516001600160a01b0316875295820195908201906001016128b1565b509495945050505050565b600081518084526020808501808196508360051b8101915082860160005b85811015612890578284038952815160e0815181875261292182880182612450565b915050868201518787015260408083015115158188015250606080830151151581880152506080808301518783038289015261295d8382612450565b60a085810151908a015260c0948501511515949098019390935250505097840197908401906001016128ff565b6020815281516020820152600060208301516129b160408401826001600160a01b03169052565b5060408301516102208060608501526129ce610240850183612450565b91506060850151601f19808685030160808701526129ec8483612450565b935060808701519150808685030160a0870152612a098483612450565b935060a087015160c087015260c087015160e087015260e08701519150610100828188015280880151925050610120828188015280880151925050610140612a548188018415159052565b80880151925050610160818786030181880152612a718584612848565b945080880151925050610180818786030181880152612a90858461289d565b9450808801519250506101a0818786030181880152612aaf85846128e1565b9450808801519250506101c08281880152808801519250506101e0818786030181880152612add8584612450565b945080880151925050610200818786030181880152612afc8584612450565b908801518782039092018488015293509050612b18838261289d565b9695505050505050565b600060208284031215612b3457600080fd5b612b3d82612554565b9392505050565b6020808252825182820181905260009190848201906040850190845b81811015612b7c57835183529284019291840191600101612b60565b50909695505050505050565b602081528151602082015260018060a01b0360208301511660408201526000604083015160e06060840152612bc1610100840182612450565b90506060840151601f19848303016080850152612bde8282612450565b915050608084015160a084015260a084015160c084015260c0840151151560e08401528091505092915050565b600067ffffffffffffffff821115612c2557612c2561259a565b5060051b60200190565b600082601f830112612c4057600080fd5b81356020612c55612c5083612c0b565b6125d9565b82815260059290921b84018101918181019086841115612c7457600080fd5b8286015b84811015612cb457803567ffffffffffffffff811115612c985760008081fd5b612ca68986838b010161260a565b845250918301918301612c78565b509695505050505050565b600082601f830112612cd057600080fd5b81356020612ce0612c5083612c0b565b82815260059290921b84018101918181019086841115612cff57600080fd5b8286015b84811015612cb457803567ffffffffffffffff80821115612d245760008081fd5b9088019060e0828b03601f1901811315612d3e5760008081fd5b612d466125b0565b8784013583811115612d585760008081fd5b612d668d8a8388010161260a565b825250604080850135898301526060612d8081870161274b565b8284015260809150612d9382870161274b565b9083015260a08581013585811115612dab5760008081fd5b612db98f8c838a010161260a565b838501525060c0945084860135818401525050612dd782850161274b565b9281019290925250845250918301918301612d03565b600082601f830112612dfe57600080fd5b81356020612e0e612c5083612c0b565b82815260059290921b84018101918181019086841115612e2d57600080fd5b8286015b84811015612cb457612e4281612554565b8352918301918301612e31565b60008060008060008060008060006101208a8c031215612e6e57600080fd5b893567ffffffffffffffff80821115612e8657600080fd5b612e928d838e0161260a565b9a5060208c0135915080821115612ea857600080fd5b612eb48d838e0161260a565b995060408c0135915080821115612eca57600080fd5b612ed68d838e0161260a565b985060608c0135975060808c0135965060a08c0135915080821115612efa57600080fd5b612f068d838e01612c2f565b955060c08c0135915080821115612f1c57600080fd5b612f288d838e01612cbf565b945060e08c0135915080821115612f3e57600080fd5b612f4a8d838e0161260a565b93506101008c0135915080821115612f6157600080fd5b50612f6e8c828d01612ded565b9150509295985092959850929598565b608081526000612f916080830187612450565b8281036020840152612fa38187612450565b90508281036040840152612fb78186612450565b90508281036060840152612fcb8185612848565b979650505050505050565b60208082526021908201527f4f6e6c79206f776e65722063616e2063616c6c20746869732066756e6374696f6040820152603760f91b606082015260800190565b600181811c9082168061302b57607f821691505b60208210810361304b57634e487b7160e01b600052602260045260246000fd5b50919050565b60208082526017908201527f496e76616c6964206d696c6573746f6e6520696e646578000000000000000000604082015260600190565b634e487b7160e01b600052603260045260246000fd5b601f8211156130e857600081815260208120601f850160051c810160208610156130c55750805b601f850160051c820191505b818110156130e4578281556001016130d1565b5050505b505050565b815167ffffffffffffffff8111156131075761310761259a565b61311b816131158454613017565b8461309e565b602080601f83116001811461315057600084156131385750858301515b600019600386901b1c1916600185901b1785556130e4565b600085815260208120601f198616915b8281101561317f57888601518255948401946001909101908401613160565b508582101561319d5787850151600019600388901b60f8161c191681555b5050505050600190811b01905550565b634e487b7160e01b600052601160045260246000fd5b6000600182016131d5576131d56131ad565b5060010190565b602081526000612b3d6020830184612450565b80820180821115610ff757610ff76131ad56fea264697066735822122032151ca42e5890cbfd8096f408d446f5de3fc47abd3555355341de30df684a5e64736f6c63430008130033",
			"opcodes": "PUSH1 0x80 PUSH1 0x40 MSTORE CALLVALUE DUP1 ISZERO PUSH2 0x10 JUMPI PUSH1 0x0 DUP1 REVERT JUMPDEST POP PUSH1 0x0 DUP1 SLOAD PUSH1 0xFF NOT PUSH2 0x100 CALLER MUL AND PUSH1 0x1 PUSH1 0x1 PUSH1 0xA8 SHL SUB NOT SWAP1 SWAP2 AND OR DUP2 SSTORE PUSH1 0x1 SSTORE PUSH2 0x3238 DUP1 PUSH2 0x3F PUSH1 0x0 CODECOPY PUSH1 0x0 RETURN INVALID PUSH1 0x80 PUSH1 0x40 MSTORE PUSH1 0x4 CALLDATASIZE LT PUSH2 0x114 JUMPI PUSH1 0x0 CALLDATALOAD PUSH1 0xE0 SHR DUP1 PUSH4 0x51B42B00 GT PUSH2 0xA0 JUMPI DUP1 PUSH4 0x98123760 GT PUSH2 0x64 JUMPI DUP1 PUSH4 0x98123760 EQ PUSH2 0x32D JUMPI DUP1 PUSH4 0xA1E5084C EQ PUSH2 0x34D JUMPI DUP1 PUSH4 0xC4C7CBFC EQ PUSH2 0x36D JUMPI DUP1 PUSH4 0xD993DE62 EQ PUSH2 0x390 JUMPI DUP1 PUSH4 0xF14FAF6F EQ PUSH2 0x3C0 JUMPI PUSH1 0x0 DUP1 REVERT JUMPDEST DUP1 PUSH4 0x51B42B00 EQ PUSH2 0x27C JUMPI DUP1 PUSH4 0x5598F8CC EQ PUSH2 0x291 JUMPI DUP1 PUSH4 0x6CAA9218 EQ PUSH2 0x2BE JUMPI DUP1 PUSH4 0x732435B2 EQ PUSH2 0x2D3 JUMPI DUP1 PUSH4 0x8E3DFBBB EQ PUSH2 0x300 JUMPI PUSH1 0x0 DUP1 REVERT JUMPDEST DUP1 PUSH4 0x36738C1E GT PUSH2 0xE7 JUMPI DUP1 PUSH4 0x36738C1E EQ PUSH2 0x1C0 JUMPI DUP1 PUSH4 0x3DE1BB15 EQ PUSH2 0x1EF JUMPI DUP1 PUSH4 0x44F72BAD EQ PUSH2 0x20F JUMPI DUP1 PUSH4 0x4933E631 EQ PUSH2 0x22F JUMPI DUP1 PUSH4 0x4EAC08EA EQ PUSH2 0x24F JUMPI PUSH1 0x0 DUP1 REVERT JUMPDEST DUP1 PUSH4 0xF15F4C0 EQ PUSH2 0x119 JUMPI DUP1 PUSH4 0x141961BC EQ PUSH2 0x130 JUMPI DUP1 PUSH4 0x19AC74BD EQ PUSH2 0x172 JUMPI DUP1 PUSH4 0x31EA5A45 EQ PUSH2 0x1A0 JUMPI JUMPDEST PUSH1 0x0 DUP1 REVERT JUMPDEST CALLVALUE DUP1 ISZERO PUSH2 0x125 JUMPI PUSH1 0x0 DUP1 REVERT JUMPDEST POP PUSH2 0x12E PUSH2 0x3D3 JUMP JUMPDEST STOP JUMPDEST CALLVALUE DUP1 ISZERO PUSH2 0x13C JUMPI PUSH1 0x0 DUP1 REVERT JUMPDEST POP PUSH2 0x150 PUSH2 0x14B CALLDATASIZE PUSH1 0x4 PUSH2 0x2437 JUMP JUMPDEST PUSH2 0x4A9 JUMP JUMPDEST PUSH1 0x40 MLOAD PUSH2 0x169 SWAP14 SWAP13 SWAP12 SWAP11 SWAP10 SWAP9 SWAP8 SWAP7 SWAP6 SWAP5 SWAP4 SWAP3 SWAP2 SWAP1 PUSH2 0x2496 JUMP JUMPDEST PUSH1 0x40 MLOAD DUP1 SWAP2 SUB SWAP1 RETURN JUMPDEST CALLVALUE DUP1 ISZERO PUSH2 0x17E JUMPI PUSH1 0x0 DUP1 REVERT JUMPDEST POP PUSH2 0x192 PUSH2 0x18D CALLDATASIZE PUSH1 0x4 PUSH2 0x2570 JUMP JUMPDEST PUSH2 0x7C8 JUMP JUMPDEST PUSH1 0x40 MLOAD SWAP1 DUP2 MSTORE PUSH1 0x20 ADD PUSH2 0x169 JUMP JUMPDEST CALLVALUE DUP1 ISZERO PUSH2 0x1AC JUMPI PUSH1 0x0 DUP1 REVERT JUMPDEST POP PUSH2 0x12E PUSH2 0x1BB CALLDATASIZE PUSH1 0x4 PUSH2 0x267A JUMP JUMPDEST PUSH2 0x7F9 JUMP JUMPDEST CALLVALUE DUP1 ISZERO PUSH2 0x1CC JUMPI PUSH1 0x0 DUP1 REVERT JUMPDEST POP PUSH2 0x1E0 PUSH2 0x1DB CALLDATASIZE PUSH1 0x4 PUSH2 0x26CA JUMP JUMPDEST PUSH2 0x9D0 JUMP JUMPDEST PUSH1 0x40 MLOAD PUSH2 0x169 SWAP4 SWAP3 SWAP2 SWAP1 PUSH2 0x26F6 JUMP JUMPDEST CALLVALUE DUP1 ISZERO PUSH2 0x1FB JUMPI PUSH1 0x0 DUP1 REVERT JUMPDEST POP PUSH2 0x12E PUSH2 0x20A CALLDATASIZE PUSH1 0x4 PUSH2 0x2729 JUMP JUMPDEST PUSH2 0xAB8 JUMP JUMPDEST CALLVALUE DUP1 ISZERO PUSH2 0x21B JUMPI PUSH1 0x0 DUP1 REVERT JUMPDEST POP PUSH2 0x12E PUSH2 0x22A CALLDATASIZE PUSH1 0x4 PUSH2 0x275B JUMP JUMPDEST PUSH2 0xD28 JUMP JUMPDEST CALLVALUE DUP1 ISZERO PUSH2 0x23B JUMPI PUSH1 0x0 DUP1 REVERT JUMPDEST POP PUSH2 0x192 PUSH2 0x24A CALLDATASIZE PUSH1 0x4 PUSH2 0x2570 JUMP JUMPDEST PUSH2 0xEB2 JUMP JUMPDEST CALLVALUE DUP1 ISZERO PUSH2 0x25B JUMPI PUSH1 0x0 DUP1 REVERT JUMPDEST POP PUSH2 0x26F PUSH2 0x26A CALLDATASIZE PUSH1 0x4 PUSH2 0x2729 JUMP JUMPDEST PUSH2 0xECE JUMP JUMPDEST PUSH1 0x40 MLOAD PUSH2 0x169 SWAP2 SWAP1 PUSH2 0x27BC JUMP JUMPDEST CALLVALUE DUP1 ISZERO PUSH2 0x288 JUMPI PUSH1 0x0 DUP1 REVERT JUMPDEST POP PUSH2 0x12E PUSH2 0xFFD JUMP JUMPDEST CALLVALUE DUP1 ISZERO PUSH2 0x29D JUMPI PUSH1 0x0 DUP1 REVERT JUMPDEST POP PUSH2 0x2B1 PUSH2 0x2AC CALLDATASIZE PUSH1 0x4 PUSH2 0x2437 JUMP JUMPDEST PUSH2 0x10BA JUMP JUMPDEST PUSH1 0x40 MLOAD PUSH2 0x169 SWAP2 SWAP1 PUSH2 0x298A JUMP JUMPDEST CALLVALUE DUP1 ISZERO PUSH2 0x2CA JUMPI PUSH1 0x0 DUP1 REVERT JUMPDEST POP PUSH1 0x1 SLOAD PUSH2 0x192 JUMP JUMPDEST CALLVALUE DUP1 ISZERO PUSH2 0x2DF JUMPI PUSH1 0x0 DUP1 REVERT JUMPDEST POP PUSH2 0x2F3 PUSH2 0x2EE CALLDATASIZE PUSH1 0x4 PUSH2 0x2B22 JUMP JUMPDEST PUSH2 0x181D JUMP JUMPDEST PUSH1 0x40 MLOAD PUSH2 0x169 SWAP2 SWAP1 PUSH2 0x2B44 JUMP JUMPDEST CALLVALUE DUP1 ISZERO PUSH2 0x30C JUMPI PUSH1 0x0 DUP1 REVERT JUMPDEST POP PUSH2 0x320 PUSH2 0x31B CALLDATASIZE PUSH1 0x4 PUSH2 0x2437 JUMP JUMPDEST PUSH2 0x1889 JUMP JUMPDEST PUSH1 0x40 MLOAD PUSH2 0x169 SWAP2 SWAP1 PUSH2 0x2B88 JUMP JUMPDEST CALLVALUE DUP1 ISZERO PUSH2 0x339 JUMPI PUSH1 0x0 DUP1 REVERT JUMPDEST POP PUSH2 0x192 PUSH2 0x348 CALLDATASIZE PUSH1 0x4 PUSH2 0x2E4F JUMP JUMPDEST PUSH2 0x1A5E JUMP JUMPDEST CALLVALUE DUP1 ISZERO PUSH2 0x359 JUMPI PUSH1 0x0 DUP1 REVERT JUMPDEST POP PUSH2 0x2F3 PUSH2 0x368 CALLDATASIZE PUSH1 0x4 PUSH2 0x2B22 JUMP JUMPDEST PUSH2 0x1E41 JUMP JUMPDEST CALLVALUE DUP1 ISZERO PUSH2 0x379 JUMPI PUSH1 0x0 DUP1 REVERT JUMPDEST POP PUSH1 0x0 SLOAD PUSH1 0xFF AND PUSH1 0x40 MLOAD SWAP1 ISZERO ISZERO DUP2 MSTORE PUSH1 0x20 ADD PUSH2 0x169 JUMP JUMPDEST CALLVALUE DUP1 ISZERO PUSH2 0x39C JUMPI PUSH1 0x0 DUP1 REVERT JUMPDEST POP PUSH2 0x3B0 PUSH2 0x3AB CALLDATASIZE PUSH1 0x4 PUSH2 0x2437 JUMP JUMPDEST PUSH2 0x1EAB JUMP JUMPDEST PUSH1 0x40 MLOAD PUSH2 0x169 SWAP5 SWAP4 SWAP3 SWAP2 SWAP1 PUSH2 0x2F7E JUMP JUMPDEST PUSH2 0x12E PUSH2 0x3CE CALLDATASIZE PUSH1 0x4 PUSH2 0x2437 JUMP JUMPDEST PUSH2 0x215F JUMP JUMPDEST PUSH1 0x0 SLOAD PUSH2 0x100 SWAP1 DIV PUSH1 0x1 PUSH1 0x1 PUSH1 0xA0 SHL SUB AND CALLER EQ PUSH2 0x40B JUMPI PUSH1 0x40 MLOAD PUSH3 0x461BCD PUSH1 0xE5 SHL DUP2 MSTORE PUSH1 0x4 ADD PUSH2 0x402 SWAP1 PUSH2 0x2FD6 JUMP JUMPDEST PUSH1 0x40 MLOAD DUP1 SWAP2 SUB SWAP1 REVERT JUMPDEST PUSH1 0x0 SLOAD PUSH1 0xFF AND ISZERO PUSH2 0x45E JUMPI PUSH1 0x40 MLOAD PUSH3 0x461BCD PUSH1 0xE5 SHL DUP2 MSTORE PUSH1 0x20 PUSH1 0x4 DUP3 ADD MSTORE PUSH1 0x1D PUSH1 0x24 DUP3 ADD MSTORE PUSH32 0x436F6E747261637420697320616C726561647920616374697661746564000000 PUSH1 0x44 DUP3 ADD MSTORE PUSH1 0x64 ADD PUSH2 0x402 JUMP JUMPDEST PUSH1 0x0 DUP1 SLOAD PUSH1 0xFF NOT AND PUSH1 0x1 OR SWAP1 SSTORE PUSH1 0x40 MLOAD CALLER SWAP1 PUSH32 0x801E55EBF9B7AD844BB66232B3193F546D19545F36313C217D1FF9BF70FA6396 SWAP1 PUSH2 0x49F SWAP1 TIMESTAMP DUP2 MSTORE PUSH1 0x20 ADD SWAP1 JUMP JUMPDEST PUSH1 0x40 MLOAD DUP1 SWAP2 SUB SWAP1 LOG2 JUMP JUMPDEST PUSH1 0x2 PUSH1 0x20 DUP2 SWAP1 MSTORE PUSH1 0x0 SWAP2 DUP3 MSTORE PUSH1 0x40 SWAP1 SWAP2 KECCAK256 DUP1 SLOAD PUSH1 0x1 DUP3 ADD SLOAD SWAP3 DUP3 ADD DUP1 SLOAD SWAP2 SWAP4 PUSH1 0x1 PUSH1 0x1 PUSH1 0xA0 SHL SUB AND SWAP3 SWAP2 PUSH2 0x4DC SWAP1 PUSH2 0x3017 JUMP JUMPDEST DUP1 PUSH1 0x1F ADD PUSH1 0x20 DUP1 SWAP2 DIV MUL PUSH1 0x20 ADD PUSH1 0x40 MLOAD SWAP1 DUP2 ADD PUSH1 0x40 MSTORE DUP1 SWAP3 SWAP2 SWAP1 DUP2 DUP2 MSTORE PUSH1 0x20 ADD DUP3 DUP1 SLOAD PUSH2 0x508 SWAP1 PUSH2 0x3017 JUMP JUMPDEST DUP1 ISZERO PUSH2 0x555 JUMPI DUP1 PUSH1 0x1F LT PUSH2 0x52A JUMPI PUSH2 0x100 DUP1 DUP4 SLOAD DIV MUL DUP4 MSTORE SWAP2 PUSH1 0x20 ADD SWAP2 PUSH2 0x555 JUMP JUMPDEST DUP3 ADD SWAP2 SWAP1 PUSH1 0x0 MSTORE PUSH1 0x20 PUSH1 0x0 KECCAK256 SWAP1 JUMPDEST DUP2 SLOAD DUP2 MSTORE SWAP1 PUSH1 0x1 ADD SWAP1 PUSH1 0x20 ADD DUP1 DUP4 GT PUSH2 0x538 JUMPI DUP3 SWAP1 SUB PUSH1 0x1F AND DUP3 ADD SWAP2 JUMPDEST POP POP POP POP POP SWAP1 DUP1 PUSH1 0x3 ADD DUP1 SLOAD PUSH2 0x56A SWAP1 PUSH2 0x3017 JUMP JUMPDEST DUP1 PUSH1 0x1F ADD PUSH1 0x20 DUP1 SWAP2 DIV MUL PUSH1 0x20 ADD PUSH1 0x40 MLOAD SWAP1 DUP2 ADD PUSH1 0x40 MSTORE DUP1 SWAP3 SWAP2 SWAP1 DUP2 DUP2 MSTORE PUSH1 0x20 ADD DUP3 DUP1 SLOAD PUSH2 0x596 SWAP1 PUSH2 0x3017 JUMP JUMPDEST DUP1 ISZERO PUSH2 0x5E3 JUMPI DUP1 PUSH1 0x1F LT PUSH2 0x5B8 JUMPI PUSH2 0x100 DUP1 DUP4 SLOAD DIV MUL DUP4 MSTORE SWAP2 PUSH1 0x20 ADD SWAP2 PUSH2 0x5E3 JUMP JUMPDEST DUP3 ADD SWAP2 SWAP1 PUSH1 0x0 MSTORE PUSH1 0x20 PUSH1 0x0 KECCAK256 SWAP1 JUMPDEST DUP2 SLOAD DUP2 MSTORE SWAP1 PUSH1 0x1 ADD SWAP1 PUSH1 0x20 ADD DUP1 DUP4 GT PUSH2 0x5C6 JUMPI DUP3 SWAP1 SUB PUSH1 0x1F AND DUP3 ADD SWAP2 JUMPDEST POP POP POP POP POP SWAP1 DUP1 PUSH1 0x4 ADD DUP1 SLOAD PUSH2 0x5F8 SWAP1 PUSH2 0x3017 JUMP JUMPDEST DUP1 PUSH1 0x1F ADD PUSH1 0x20 DUP1 SWAP2 DIV MUL PUSH1 0x20 ADD PUSH1 0x40 MLOAD SWAP1 DUP2 ADD PUSH1 0x40 MSTORE DUP1 SWAP3 SWAP2 SWAP1 DUP2 DUP2 MSTORE PUSH1 0x20 ADD DUP3 DUP1 SLOAD PUSH2 0x624 SWAP1 PUSH2 0x3017 JUMP JUMPDEST DUP1 ISZERO PUSH2 0x671 JUMPI DUP1 PUSH1 0x1F LT PUSH2 0x646 JUMPI PUSH2 0x100 DUP1 DUP4 SLOAD DIV MUL DUP4 MSTORE SWAP2 PUSH1 0x20 ADD SWAP2 PUSH2 0x671 JUMP JUMPDEST DUP3 ADD SWAP2 SWAP1 PUSH1 0x0 MSTORE PUSH1 0x20 PUSH1 0x0 KECCAK256 SWAP1 JUMPDEST DUP2 SLOAD DUP2 MSTORE SWAP1 PUSH1 0x1 ADD SWAP1 PUSH1 0x20 ADD DUP1 DUP4 GT PUSH2 0x654 JUMPI DUP3 SWAP1 SUB PUSH1 0x1F AND DUP3 ADD SWAP2 JUMPDEST POP POP POP POP POP SWAP1 DUP1 PUSH1 0x5 ADD SLOAD SWAP1 DUP1 PUSH1 0x6 ADD SLOAD SWAP1 DUP1 PUSH1 0x7 ADD SLOAD SWAP1 DUP1 PUSH1 0x8 ADD SLOAD SWAP1 DUP1 PUSH1 0x9 ADD PUSH1 0x0 SWAP1 SLOAD SWAP1 PUSH2 0x100 EXP SWAP1 DIV PUSH1 0xFF AND SWAP1 DUP1 PUSH1 0xD ADD SLOAD SWAP1 DUP1 PUSH1 0xE ADD DUP1 SLOAD PUSH2 0x6B7 SWAP1 PUSH2 0x3017 JUMP JUMPDEST DUP1 PUSH1 0x1F ADD PUSH1 0x20 DUP1 SWAP2 DIV MUL PUSH1 0x20 ADD PUSH1 0x40 MLOAD SWAP1 DUP2 ADD PUSH1 0x40 MSTORE DUP1 SWAP3 SWAP2 SWAP1 DUP2 DUP2 MSTORE PUSH1 0x20 ADD DUP3 DUP1 SLOAD PUSH2 0x6E3 SWAP1 PUSH2 0x3017 JUMP JUMPDEST DUP1 ISZERO PUSH2 0x730 JUMPI DUP1 PUSH1 0x1F LT PUSH2 0x705 JUMPI PUSH2 0x100 DUP1 DUP4 SLOAD DIV MUL DUP4 MSTORE SWAP2 PUSH1 0x20 ADD SWAP2 PUSH2 0x730 JUMP JUMPDEST DUP3 ADD SWAP2 SWAP1 PUSH1 0x0 MSTORE PUSH1 0x20 PUSH1 0x0 KECCAK256 SWAP1 JUMPDEST DUP2 SLOAD DUP2 MSTORE SWAP1 PUSH1 0x1 ADD SWAP1 PUSH1 0x20 ADD DUP1 DUP4 GT PUSH2 0x713 JUMPI DUP3 SWAP1 SUB PUSH1 0x1F AND DUP3 ADD SWAP2 JUMPDEST POP POP POP POP POP SWAP1 DUP1 PUSH1 0xF ADD DUP1 SLOAD PUSH2 0x745 SWAP1 PUSH2 0x3017 JUMP JUMPDEST DUP1 PUSH1 0x1F ADD PUSH1 0x20 DUP1 SWAP2 DIV MUL PUSH1 0x20 ADD PUSH1 0x40 MLOAD SWAP1 DUP2 ADD PUSH1 0x40 MSTORE DUP1 SWAP3 SWAP2 SWAP1 DUP2 DUP2 MSTORE PUSH1 0x20 ADD DUP3 DUP1 SLOAD PUSH2 0x771 SWAP1 PUSH2 0x3017 JUMP JUMPDEST DUP1 ISZERO PUSH2 0x7BE JUMPI DUP1 PUSH1 0x1F LT PUSH2 0x793 JUMPI PUSH2 0x100 DUP1 DUP4 SLOAD DIV MUL DUP4 MSTORE SWAP2 PUSH1 0x20 ADD SWAP2 PUSH2 0x7BE JUMP JUMPDEST DUP3 ADD SWAP2 SWAP1 PUSH1 0x0 MSTORE PUSH1 0x20 PUSH1 0x0 KECCAK256 SWAP1 JUMPDEST DUP2 SLOAD DUP2 MSTORE SWAP1 PUSH1 0x1 ADD SWAP1 PUSH1 0x20 ADD DUP1 DUP4 GT PUSH2 0x7A1 JUMPI DUP3 SWAP1 SUB PUSH1 0x1F AND DUP3 ADD SWAP2 JUMPDEST POP POP POP POP POP SWAP1 POP DUP14 JUMP JUMPDEST PUSH1 0x4 PUSH1 0x20 MSTORE DUP2 PUSH1 0x0 MSTORE PUSH1 0x40 PUSH1 0x0 KECCAK256 DUP2 DUP2 SLOAD DUP2 LT PUSH2 0x7E4 JUMPI PUSH1 0x0 DUP1 REVERT JUMPDEST SWAP1 PUSH1 0x0 MSTORE PUSH1 0x20 PUSH1 0x0 KECCAK256 ADD PUSH1 0x0 SWAP2 POP SWAP2 POP POP SLOAD DUP2 JUMP JUMPDEST PUSH1 0x0 DUP4 DUP2 MSTORE PUSH1 0x2 PUSH1 0x20 MSTORE PUSH1 0x40 SWAP1 KECCAK256 PUSH1 0x1 DUP2 ADD SLOAD PUSH1 0x1 PUSH1 0x1 PUSH1 0xA0 SHL SUB AND CALLER EQ PUSH2 0x881 JUMPI PUSH1 0x40 MLOAD PUSH3 0x461BCD PUSH1 0xE5 SHL DUP2 MSTORE PUSH1 0x20 PUSH1 0x4 DUP3 ADD MSTORE PUSH1 0x35 PUSH1 0x24 DUP3 ADD MSTORE PUSH32 0x4F6E6C792063616D706169676E2063726561746F722063616E207375626D6974 PUSH1 0x44 DUP3 ADD MSTORE PUSH21 0x1036B4B632B9BA37B7329031B7B6B83632BA34B7B7 PUSH1 0x59 SHL PUSH1 0x64 DUP3 ADD MSTORE PUSH1 0x84 ADD PUSH2 0x402 JUMP JUMPDEST PUSH1 0xC DUP2 ADD SLOAD DUP4 LT PUSH2 0x8A4 JUMPI PUSH1 0x40 MLOAD PUSH3 0x461BCD PUSH1 0xE5 SHL DUP2 MSTORE PUSH1 0x4 ADD PUSH2 0x402 SWAP1 PUSH2 0x3051 JUMP JUMPDEST DUP1 PUSH1 0xC ADD DUP4 DUP2 SLOAD DUP2 LT PUSH2 0x8B9 JUMPI PUSH2 0x8B9 PUSH2 0x3088 JUMP JUMPDEST PUSH1 0x0 SWAP2 DUP3 MSTORE PUSH1 0x20 SWAP1 SWAP2 KECCAK256 PUSH1 0x2 PUSH1 0x6 SWAP1 SWAP3 MUL ADD ADD SLOAD PUSH1 0xFF AND ISZERO PUSH2 0x91D JUMPI PUSH1 0x40 MLOAD PUSH3 0x461BCD PUSH1 0xE5 SHL DUP2 MSTORE PUSH1 0x20 PUSH1 0x4 DUP3 ADD MSTORE PUSH1 0x1B PUSH1 0x24 DUP3 ADD MSTORE PUSH32 0x4D696C6573746F6E6520616C726561647920636F6D706C657465640000000000 PUSH1 0x44 DUP3 ADD MSTORE PUSH1 0x64 ADD PUSH2 0x402 JUMP JUMPDEST DUP2 DUP2 PUSH1 0xC ADD DUP5 DUP2 SLOAD DUP2 LT PUSH2 0x933 JUMPI PUSH2 0x933 PUSH2 0x3088 JUMP JUMPDEST SWAP1 PUSH1 0x0 MSTORE PUSH1 0x20 PUSH1 0x0 KECCAK256 SWAP1 PUSH1 0x6 MUL ADD PUSH1 0x3 ADD SWAP1 DUP2 PUSH2 0x950 SWAP2 SWAP1 PUSH2 0x30ED JUMP JUMPDEST POP PUSH1 0x1 DUP2 PUSH1 0xC ADD DUP5 DUP2 SLOAD DUP2 LT PUSH2 0x968 JUMPI PUSH2 0x968 PUSH2 0x3088 JUMP JUMPDEST SWAP1 PUSH1 0x0 MSTORE PUSH1 0x20 PUSH1 0x0 KECCAK256 SWAP1 PUSH1 0x6 MUL ADD PUSH1 0x5 ADD PUSH1 0x0 PUSH2 0x100 EXP DUP2 SLOAD DUP2 PUSH1 0xFF MUL NOT AND SWAP1 DUP4 ISZERO ISZERO MUL OR SWAP1 SSTORE POP DUP4 PUSH32 0x1B7218C0AC23EA9CBE4DF603D2B340FBF469A115B73EA3D11460727F445D6BE1 DUP5 PUSH1 0x40 MLOAD PUSH2 0x9C2 SWAP2 DUP2 MSTORE PUSH1 0x20 ADD SWAP1 JUMP JUMPDEST PUSH1 0x40 MLOAD DUP1 SWAP2 SUB SWAP1 LOG2 POP POP POP POP JUMP JUMPDEST PUSH1 0x3 PUSH1 0x20 MSTORE DUP3 PUSH1 0x0 MSTORE PUSH1 0x40 PUSH1 0x0 KECCAK256 PUSH1 0x20 MSTORE DUP2 PUSH1 0x0 MSTORE PUSH1 0x40 PUSH1 0x0 KECCAK256 DUP2 DUP2 SLOAD DUP2 LT PUSH2 0x9F8 JUMPI PUSH1 0x0 DUP1 REVERT JUMPDEST PUSH1 0x0 SWAP2 DUP3 MSTORE PUSH1 0x20 SWAP1 SWAP2 KECCAK256 PUSH1 0x3 SWAP1 SWAP2 MUL ADD DUP1 SLOAD PUSH1 0x1 DUP3 ADD DUP1 SLOAD PUSH1 0xFF SWAP1 SWAP3 AND SWAP6 POP SWAP2 SWAP4 POP SWAP1 SWAP2 POP PUSH2 0xA26 SWAP1 PUSH2 0x3017 JUMP JUMPDEST DUP1 PUSH1 0x1F ADD PUSH1 0x20 DUP1 SWAP2 DIV MUL PUSH1 0x20 ADD PUSH1 0x40 MLOAD SWAP1 DUP2 ADD PUSH1 0x40 MSTORE DUP1 SWAP3 SWAP2 SWAP1 DUP2 DUP2 MSTORE PUSH1 0x20 ADD DUP3 DUP1 SLOAD PUSH2 0xA52 SWAP1 PUSH2 0x3017 JUMP JUMPDEST DUP1 ISZERO PUSH2 0xA9F JUMPI DUP1 PUSH1 0x1F LT PUSH2 0xA74 JUMPI PUSH2 0x100 DUP1 DUP4 SLOAD DIV MUL DUP4 MSTORE SWAP2 PUSH1 0x20 ADD SWAP2 PUSH2 0xA9F JUMP JUMPDEST DUP3 ADD SWAP2 SWAP1 PUSH1 0x0 MSTORE PUSH1 0x20 PUSH1 0x0 KECCAK256 SWAP1 JUMPDEST DUP2 SLOAD DUP2 MSTORE SWAP1 PUSH1 0x1 ADD SWAP1 PUSH1 0x20 ADD DUP1 DUP4 GT PUSH2 0xA82 JUMPI DUP3 SWAP1 SUB PUSH1 0x1F AND DUP3 ADD SWAP2 JUMPDEST POP POP POP PUSH1 0x2 SWAP1 SWAP4 ADD SLOAD SWAP2 SWAP3 POP POP PUSH1 0x1 PUSH1 0x1 PUSH1 0xA0 SHL SUB AND DUP4 JUMP JUMPDEST PUSH1 0x0 DUP3 DUP2 MSTORE PUSH1 0x2 PUSH1 0x20 MSTORE PUSH1 0x40 SWAP1 KECCAK256 PUSH1 0x1 DUP2 ADD SLOAD PUSH1 0x1 PUSH1 0x1 PUSH1 0xA0 SHL SUB AND CALLER EQ PUSH2 0xB32 JUMPI PUSH1 0x40 MLOAD PUSH3 0x461BCD PUSH1 0xE5 SHL DUP2 MSTORE PUSH1 0x20 PUSH1 0x4 DUP3 ADD MSTORE PUSH1 0x27 PUSH1 0x24 DUP3 ADD MSTORE PUSH32 0x4F6E6C792063616D706169676E2063726561746F722063616E2072656C656173 PUSH1 0x44 DUP3 ADD MSTORE PUSH7 0x652066756E6473 PUSH1 0xC8 SHL PUSH1 0x64 DUP3 ADD MSTORE PUSH1 0x84 ADD PUSH2 0x402 JUMP JUMPDEST PUSH1 0xC DUP2 ADD SLOAD DUP3 LT PUSH2 0xB55 JUMPI PUSH1 0x40 MLOAD PUSH3 0x461BCD PUSH1 0xE5 SHL DUP2 MSTORE PUSH1 0x4 ADD PUSH2 0x402 SWAP1 PUSH2 0x3051 JUMP JUMPDEST DUP1 PUSH1 0xC ADD DUP3 DUP2 SLOAD DUP2 LT PUSH2 0xB6A JUMPI PUSH2 0xB6A PUSH2 0x3088 JUMP JUMPDEST SWAP1 PUSH1 0x0 MSTORE PUSH1 0x20 PUSH1 0x0 KECCAK256 SWAP1 PUSH1 0x6 MUL ADD PUSH1 0x2 ADD PUSH1 0x1 SWAP1 SLOAD SWAP1 PUSH2 0x100 EXP SWAP1 DIV PUSH1 0xFF AND ISZERO PUSH2 0xBCF JUMPI PUSH1 0x40 MLOAD PUSH3 0x461BCD PUSH1 0xE5 SHL DUP2 MSTORE PUSH1 0x20 PUSH1 0x4 DUP3 ADD MSTORE PUSH1 0x16 PUSH1 0x24 DUP3 ADD MSTORE PUSH22 0x119D5B991CC8185B1C9958591E481C995B19585CD959 PUSH1 0x52 SHL PUSH1 0x44 DUP3 ADD MSTORE PUSH1 0x64 ADD PUSH2 0x402 JUMP JUMPDEST PUSH1 0x0 DUP2 PUSH1 0xC ADD DUP4 DUP2 SLOAD DUP2 LT PUSH2 0xBE6 JUMPI PUSH2 0xBE6 PUSH2 0x3088 JUMP JUMPDEST SWAP1 PUSH1 0x0 MSTORE PUSH1 0x20 PUSH1 0x0 KECCAK256 SWAP1 PUSH1 0x6 MUL ADD PUSH1 0x1 ADD SLOAD SWAP1 POP DUP1 SELFBALANCE LT ISZERO PUSH2 0xC4A JUMPI PUSH1 0x40 MLOAD PUSH3 0x461BCD PUSH1 0xE5 SHL DUP2 MSTORE PUSH1 0x20 PUSH1 0x4 DUP3 ADD MSTORE PUSH1 0x1D PUSH1 0x24 DUP3 ADD MSTORE PUSH32 0x496E73756666696369656E7420636F6E74726163742062616C616E6365000000 PUSH1 0x44 DUP3 ADD MSTORE PUSH1 0x64 ADD PUSH2 0x402 JUMP JUMPDEST PUSH1 0x1 DUP3 PUSH1 0xC ADD DUP5 DUP2 SLOAD DUP2 LT PUSH2 0xC61 JUMPI PUSH2 0xC61 PUSH2 0x3088 JUMP JUMPDEST SWAP1 PUSH1 0x0 MSTORE PUSH1 0x20 PUSH1 0x0 KECCAK256 SWAP1 PUSH1 0x6 MUL ADD PUSH1 0x2 ADD PUSH1 0x1 PUSH2 0x100 EXP DUP2 SLOAD DUP2 PUSH1 0xFF MUL NOT AND SWAP1 DUP4 ISZERO ISZERO MUL OR SWAP1 SSTORE POP DUP1 DUP3 PUSH1 0xC ADD DUP5 DUP2 SLOAD DUP2 LT PUSH2 0xC9F JUMPI PUSH2 0xC9F PUSH2 0x3088 JUMP JUMPDEST PUSH1 0x0 SWAP2 DUP3 MSTORE PUSH1 0x20 DUP3 KECCAK256 PUSH1 0x4 PUSH1 0x6 SWAP1 SWAP3 MUL ADD ADD SWAP2 SWAP1 SWAP2 SSTORE PUSH1 0x1 DUP4 ADD SLOAD PUSH1 0x40 MLOAD PUSH1 0x1 PUSH1 0x1 PUSH1 0xA0 SHL SUB SWAP1 SWAP2 AND SWAP2 DUP4 ISZERO PUSH2 0x8FC MUL SWAP2 DUP5 SWAP2 DUP2 DUP2 DUP2 DUP6 DUP9 DUP9 CALL SWAP4 POP POP POP POP ISZERO DUP1 ISZERO PUSH2 0xCEF JUMPI RETURNDATASIZE PUSH1 0x0 DUP1 RETURNDATACOPY RETURNDATASIZE PUSH1 0x0 REVERT JUMPDEST POP PUSH1 0x40 DUP1 MLOAD DUP5 DUP2 MSTORE PUSH1 0x20 DUP2 ADD DUP4 SWAP1 MSTORE DUP6 SWAP2 PUSH32 0x24D2F6E8AC6C13D1E7610752AB0B7CE03D5043806A65D3D631AE859AD81D159B SWAP2 ADD PUSH2 0x9C2 JUMP JUMPDEST PUSH1 0x0 DUP5 DUP2 MSTORE PUSH1 0x2 PUSH1 0x20 MSTORE PUSH1 0x40 SWAP1 KECCAK256 PUSH1 0xC DUP2 ADD SLOAD DUP5 LT PUSH2 0xD59 JUMPI PUSH1 0x40 MLOAD PUSH3 0x461BCD PUSH1 0xE5 SHL DUP2 MSTORE PUSH1 0x4 ADD PUSH2 0x402 SWAP1 PUSH2 0x3051 JUMP JUMPDEST DUP1 PUSH1 0xC ADD DUP5 DUP2 SLOAD DUP2 LT PUSH2 0xD6E JUMPI PUSH2 0xD6E PUSH2 0x3088 JUMP JUMPDEST PUSH1 0x0 SWAP2 DUP3 MSTORE PUSH1 0x20 SWAP1 SWAP2 KECCAK256 PUSH1 0x5 PUSH1 0x6 SWAP1 SWAP3 MUL ADD ADD SLOAD PUSH1 0xFF AND PUSH2 0xDD1 JUMPI PUSH1 0x40 MLOAD PUSH3 0x461BCD PUSH1 0xE5 SHL DUP2 MSTORE PUSH1 0x20 PUSH1 0x4 DUP3 ADD MSTORE PUSH1 0x1A PUSH1 0x24 DUP3 ADD MSTORE PUSH32 0x4D696C6573746F6E65206E6F7420756E64657220726576696577000000000000 PUSH1 0x44 DUP3 ADD MSTORE PUSH1 0x64 ADD PUSH2 0x402 JUMP JUMPDEST PUSH1 0x40 DUP1 MLOAD PUSH1 0x60 DUP2 ADD DUP3 MSTORE DUP5 ISZERO ISZERO DUP2 MSTORE PUSH1 0x20 DUP1 DUP3 ADD DUP6 DUP2 MSTORE CALLER DUP4 DUP6 ADD MSTORE PUSH1 0x0 DUP10 DUP2 MSTORE PUSH1 0x3 DUP1 DUP5 MSTORE DUP6 DUP3 KECCAK256 DUP11 DUP4 MSTORE DUP5 MSTORE SWAP5 DUP2 KECCAK256 DUP1 SLOAD PUSH1 0x1 DUP1 DUP3 ADD DUP4 SSTORE SWAP2 DUP4 MSTORE SWAP4 SWAP1 SWAP2 KECCAK256 DUP5 MLOAD SWAP4 SWAP1 SWAP6 MUL SWAP1 SWAP5 ADD DUP1 SLOAD PUSH1 0xFF NOT AND SWAP3 ISZERO ISZERO SWAP3 SWAP1 SWAP3 OR DUP3 SSTORE MLOAD SWAP2 SWAP3 DUP4 SWAP3 SWAP1 DUP3 ADD SWAP1 PUSH2 0xE3D SWAP1 DUP3 PUSH2 0x30ED JUMP JUMPDEST POP PUSH1 0x40 SWAP2 DUP3 ADD MLOAD PUSH1 0x2 SWAP2 SWAP1 SWAP2 ADD DUP1 SLOAD PUSH1 0x1 PUSH1 0x1 PUSH1 0xA0 SHL SUB NOT AND PUSH1 0x1 PUSH1 0x1 PUSH1 0xA0 SHL SUB SWAP1 SWAP3 AND SWAP2 SWAP1 SWAP2 OR SWAP1 SSTORE DUP1 MLOAD DUP7 DUP2 MSTORE CALLER PUSH1 0x20 DUP3 ADD MSTORE DUP6 ISZERO ISZERO SWAP2 DUP2 ADD SWAP2 SWAP1 SWAP2 MSTORE DUP7 SWAP1 PUSH31 0xCC95DC6FC44CD34D3AB5CF073428F6B31B3507C6EFF788412E3FE623F1E08B SWAP1 PUSH1 0x60 ADD PUSH1 0x40 MLOAD DUP1 SWAP2 SUB SWAP1 LOG2 POP POP POP POP POP POP JUMP JUMPDEST PUSH1 0x5 PUSH1 0x20 MSTORE DUP2 PUSH1 0x0 MSTORE PUSH1 0x40 PUSH1 0x0 KECCAK256 DUP2 DUP2 SLOAD DUP2 LT PUSH2 0x7E4 JUMPI PUSH1 0x0 DUP1 REVERT JUMPDEST PUSH1 0x0 DUP3 DUP2 MSTORE PUSH1 0x3 PUSH1 0x20 SWAP1 DUP2 MSTORE PUSH1 0x40 DUP1 DUP4 KECCAK256 DUP5 DUP5 MSTORE DUP3 MSTORE DUP1 DUP4 KECCAK256 DUP1 SLOAD DUP3 MLOAD DUP2 DUP6 MUL DUP2 ADD DUP6 ADD SWAP1 SWAP4 MSTORE DUP1 DUP4 MSTORE PUSH1 0x60 SWAP5 SWAP3 SWAP4 SWAP2 SWAP3 SWAP1 SWAP2 DUP5 ADD JUMPDEST DUP3 DUP3 LT ISZERO PUSH2 0xFF0 JUMPI PUSH1 0x0 DUP5 DUP2 MSTORE PUSH1 0x20 SWAP1 DUP2 SWAP1 KECCAK256 PUSH1 0x40 DUP1 MLOAD PUSH1 0x60 DUP2 ADD SWAP1 SWAP2 MSTORE PUSH1 0x3 DUP6 MUL SWAP1 SWAP2 ADD DUP1 SLOAD PUSH1 0xFF AND ISZERO ISZERO DUP3 MSTORE PUSH1 0x1 DUP2 ADD DUP1 SLOAD SWAP3 SWAP4 SWAP2 SWAP3 SWAP2 DUP5 ADD SWAP2 PUSH2 0xF49 SWAP1 PUSH2 0x3017 JUMP JUMPDEST DUP1 PUSH1 0x1F ADD PUSH1 0x20 DUP1 SWAP2 DIV MUL PUSH1 0x20 ADD PUSH1 0x40 MLOAD SWAP1 DUP2 ADD PUSH1 0x40 MSTORE DUP1 SWAP3 SWAP2 SWAP1 DUP2 DUP2 MSTORE PUSH1 0x20 ADD DUP3 DUP1 SLOAD PUSH2 0xF75 SWAP1 PUSH2 0x3017 JUMP JUMPDEST DUP1 ISZERO PUSH2 0xFC2 JUMPI DUP1 PUSH1 0x1F LT PUSH2 0xF97 JUMPI PUSH2 0x100 DUP1 DUP4 SLOAD DIV MUL DUP4 MSTORE SWAP2 PUSH1 0x20 ADD SWAP2 PUSH2 0xFC2 JUMP JUMPDEST DUP3 ADD SWAP2 SWAP1 PUSH1 0x0 MSTORE PUSH1 0x20 PUSH1 0x0 KECCAK256 SWAP1 JUMPDEST DUP2 SLOAD DUP2 MSTORE SWAP1 PUSH1 0x1 ADD SWAP1 PUSH1 0x20 ADD DUP1 DUP4 GT PUSH2 0xFA5 JUMPI DUP3 SWAP1 SUB PUSH1 0x1F AND DUP3 ADD SWAP2 JUMPDEST POP POP POP SWAP2 DUP4 MSTORE POP POP PUSH1 0x2 SWAP2 SWAP1 SWAP2 ADD SLOAD PUSH1 0x1 PUSH1 0x1 PUSH1 0xA0 SHL SUB AND PUSH1 0x20 SWAP2 DUP3 ADD MSTORE SWAP1 DUP3 MSTORE PUSH1 0x1 SWAP3 SWAP1 SWAP3 ADD SWAP2 ADD PUSH2 0xF04 JUMP JUMPDEST POP POP POP POP SWAP1 POP JUMPDEST SWAP3 SWAP2 POP POP JUMP JUMPDEST PUSH1 0x0 SLOAD PUSH2 0x100 SWAP1 DIV PUSH1 0x1 PUSH1 0x1 PUSH1 0xA0 SHL SUB AND CALLER EQ PUSH2 0x102C JUMPI PUSH1 0x40 MLOAD PUSH3 0x461BCD PUSH1 0xE5 SHL DUP2 MSTORE PUSH1 0x4 ADD PUSH2 0x402 SWAP1 PUSH2 0x2FD6 JUMP JUMPDEST PUSH1 0x0 SLOAD PUSH1 0xFF AND PUSH2 0x107E JUMPI PUSH1 0x40 MLOAD PUSH3 0x461BCD PUSH1 0xE5 SHL DUP2 MSTORE PUSH1 0x20 PUSH1 0x4 DUP3 ADD MSTORE PUSH1 0x1F PUSH1 0x24 DUP3 ADD MSTORE PUSH32 0x436F6E747261637420697320616C726561647920646561637469766174656400 PUSH1 0x44 DUP3 ADD MSTORE PUSH1 0x64 ADD PUSH2 0x402 JUMP JUMPDEST PUSH1 0x0 DUP1 SLOAD PUSH1 0xFF NOT AND SWAP1 SSTORE PUSH1 0x40 MLOAD TIMESTAMP DUP2 MSTORE CALLER SWAP1 PUSH32 0xA4A2BC7FC83A0ADD711DE3F3EB118134EC939B9730E90F1816708B3922694072 SWAP1 PUSH1 0x20 ADD PUSH2 0x49F JUMP JUMPDEST PUSH2 0x114C PUSH1 0x40 MLOAD DUP1 PUSH2 0x220 ADD PUSH1 0x40 MSTORE DUP1 PUSH1 0x0 DUP2 MSTORE PUSH1 0x20 ADD PUSH1 0x0 PUSH1 0x1 PUSH1 0x1 PUSH1 0xA0 SHL SUB AND DUP2 MSTORE PUSH1 0x20 ADD PUSH1 0x60 DUP2 MSTORE PUSH1 0x20 ADD PUSH1 0x60 DUP2 MSTORE PUSH1 0x20 ADD PUSH1 0x60 DUP2 MSTORE PUSH1 0x20 ADD PUSH1 0x0 DUP2 MSTORE PUSH1 0x20 ADD PUSH1 0x0 DUP2 MSTORE PUSH1 0x20 ADD PUSH1 0x0 DUP2 MSTORE PUSH1 0x20 ADD PUSH1 0x0 DUP2 MSTORE PUSH1 0x20 ADD PUSH1 0x0 ISZERO ISZERO DUP2 MSTORE PUSH1 0x20 ADD PUSH1 0x60 DUP2 MSTORE PUSH1 0x20 ADD PUSH1 0x60 DUP2 MSTORE PUSH1 0x20 ADD PUSH1 0x60 DUP2 MSTORE PUSH1 0x20 ADD PUSH1 0x0 DUP2 MSTORE PUSH1 0x20 ADD PUSH1 0x60 DUP2 MSTORE PUSH1 0x20 ADD PUSH1 0x60 DUP2 MSTORE PUSH1 0x20 ADD PUSH1 0x60 DUP2 MSTORE POP SWAP1 JUMP JUMPDEST PUSH1 0x0 DUP3 DUP2 MSTORE PUSH1 0x2 PUSH1 0x20 DUP2 DUP2 MSTORE PUSH1 0x40 SWAP3 DUP4 SWAP1 KECCAK256 DUP4 MLOAD PUSH2 0x220 DUP2 ADD DUP6 MSTORE DUP2 SLOAD DUP2 MSTORE PUSH1 0x1 DUP3 ADD SLOAD PUSH1 0x1 PUSH1 0x1 PUSH1 0xA0 SHL SUB AND SWAP3 DUP2 ADD SWAP3 SWAP1 SWAP3 MSTORE SWAP2 DUP3 ADD DUP1 SLOAD SWAP2 SWAP4 DUP5 ADD SWAP2 PUSH2 0x1193 SWAP1 PUSH2 0x3017 JUMP JUMPDEST DUP1 PUSH1 0x1F ADD PUSH1 0x20 DUP1 SWAP2 DIV MUL PUSH1 0x20 ADD PUSH1 0x40 MLOAD SWAP1 DUP2 ADD PUSH1 0x40 MSTORE DUP1 SWAP3 SWAP2 SWAP1 DUP2 DUP2 MSTORE PUSH1 0x20 ADD DUP3 DUP1 SLOAD PUSH2 0x11BF SWAP1 PUSH2 0x3017 JUMP JUMPDEST DUP1 ISZERO PUSH2 0x120C JUMPI DUP1 PUSH1 0x1F LT PUSH2 0x11E1 JUMPI PUSH2 0x100 DUP1 DUP4 SLOAD DIV MUL DUP4 MSTORE SWAP2 PUSH1 0x20 ADD SWAP2 PUSH2 0x120C JUMP JUMPDEST DUP3 ADD SWAP2 SWAP1 PUSH1 0x0 MSTORE PUSH1 0x20 PUSH1 0x0 KECCAK256 SWAP1 JUMPDEST DUP2 SLOAD DUP2 MSTORE SWAP1 PUSH1 0x1 ADD SWAP1 PUSH1 0x20 ADD DUP1 DUP4 GT PUSH2 0x11EF JUMPI DUP3 SWAP1 SUB PUSH1 0x1F AND DUP3 ADD SWAP2 JUMPDEST POP POP POP POP POP DUP2 MSTORE PUSH1 0x20 ADD PUSH1 0x3 DUP3 ADD DUP1 SLOAD PUSH2 0x1225 SWAP1 PUSH2 0x3017 JUMP JUMPDEST DUP1 PUSH1 0x1F ADD PUSH1 0x20 DUP1 SWAP2 DIV MUL PUSH1 0x20 ADD PUSH1 0x40 MLOAD SWAP1 DUP2 ADD PUSH1 0x40 MSTORE DUP1 SWAP3 SWAP2 SWAP1 DUP2 DUP2 MSTORE PUSH1 0x20 ADD DUP3 DUP1 SLOAD PUSH2 0x1251 SWAP1 PUSH2 0x3017 JUMP JUMPDEST DUP1 ISZERO PUSH2 0x129E JUMPI DUP1 PUSH1 0x1F LT PUSH2 0x1273 JUMPI PUSH2 0x100 DUP1 DUP4 SLOAD DIV MUL DUP4 MSTORE SWAP2 PUSH1 0x20 ADD SWAP2 PUSH2 0x129E JUMP JUMPDEST DUP3 ADD SWAP2 SWAP1 PUSH1 0x0 MSTORE PUSH1 0x20 PUSH1 0x0 KECCAK256 SWAP1 JUMPDEST DUP2 SLOAD DUP2 MSTORE SWAP1 PUSH1 0x1 ADD SWAP1 PUSH1 0x20 ADD DUP1 DUP4 GT PUSH2 0x1281 JUMPI DUP3 SWAP1 SUB PUSH1 0x1F AND DUP3 ADD SWAP2 JUMPDEST POP POP POP POP POP DUP2 MSTORE PUSH1 0x20 ADD PUSH1 0x4 DUP3 ADD DUP1 SLOAD PUSH2 0x12B7 SWAP1 PUSH2 0x3017 JUMP JUMPDEST DUP1 PUSH1 0x1F ADD PUSH1 0x20 DUP1 SWAP2 DIV MUL PUSH1 0x20 ADD PUSH1 0x40 MLOAD SWAP1 DUP2 ADD PUSH1 0x40 MSTORE DUP1 SWAP3 SWAP2 SWAP1 DUP2 DUP2 MSTORE PUSH1 0x20 ADD DUP3 DUP1 SLOAD PUSH2 0x12E3 SWAP1 PUSH2 0x3017 JUMP JUMPDEST DUP1 ISZERO PUSH2 0x1330 JUMPI DUP1 PUSH1 0x1F LT PUSH2 0x1305 JUMPI PUSH2 0x100 DUP1 DUP4 SLOAD DIV MUL DUP4 MSTORE SWAP2 PUSH1 0x20 ADD SWAP2 PUSH2 0x1330 JUMP JUMPDEST DUP3 ADD SWAP2 SWAP1 PUSH1 0x0 MSTORE PUSH1 0x20 PUSH1 0x0 KECCAK256 SWAP1 JUMPDEST DUP2 SLOAD DUP2 MSTORE SWAP1 PUSH1 0x1 ADD SWAP1 PUSH1 0x20 ADD DUP1 DUP4 GT PUSH2 0x1313 JUMPI DUP3 SWAP1 SUB PUSH1 0x1F AND DUP3 ADD SWAP2 JUMPDEST POP POP POP POP POP DUP2 MSTORE PUSH1 0x20 ADD PUSH1 0x5 DUP3 ADD SLOAD DUP2 MSTORE PUSH1 0x20 ADD PUSH1 0x6 DUP3 ADD SLOAD DUP2 MSTORE PUSH1 0x20 ADD PUSH1 0x7 DUP3 ADD SLOAD DUP2 MSTORE PUSH1 0x20 ADD PUSH1 0x8 DUP3 ADD SLOAD DUP2 MSTORE PUSH1 0x20 ADD PUSH1 0x9 DUP3 ADD PUSH1 0x0 SWAP1 SLOAD SWAP1 PUSH2 0x100 EXP SWAP1 DIV PUSH1 0xFF AND ISZERO ISZERO ISZERO ISZERO DUP2 MSTORE PUSH1 0x20 ADD PUSH1 0xA DUP3 ADD DUP1 SLOAD DUP1 PUSH1 0x20 MUL PUSH1 0x20 ADD PUSH1 0x40 MLOAD SWAP1 DUP2 ADD PUSH1 0x40 MSTORE DUP1 SWAP3 SWAP2 SWAP1 DUP2 DUP2 MSTORE PUSH1 0x20 ADD PUSH1 0x0 SWAP1 JUMPDEST DUP3 DUP3 LT ISZERO PUSH2 0x144D JUMPI DUP4 DUP3 SWAP1 PUSH1 0x0 MSTORE PUSH1 0x20 PUSH1 0x0 KECCAK256 ADD DUP1 SLOAD PUSH2 0x13C0 SWAP1 PUSH2 0x3017 JUMP JUMPDEST DUP1 PUSH1 0x1F ADD PUSH1 0x20 DUP1 SWAP2 DIV MUL PUSH1 0x20 ADD PUSH1 0x40 MLOAD SWAP1 DUP2 ADD PUSH1 0x40 MSTORE DUP1 SWAP3 SWAP2 SWAP1 DUP2 DUP2 MSTORE PUSH1 0x20 ADD DUP3 DUP1 SLOAD PUSH2 0x13EC SWAP1 PUSH2 0x3017 JUMP JUMPDEST DUP1 ISZERO PUSH2 0x1439 JUMPI DUP1 PUSH1 0x1F LT PUSH2 0x140E JUMPI PUSH2 0x100 DUP1 DUP4 SLOAD DIV MUL DUP4 MSTORE SWAP2 PUSH1 0x20 ADD SWAP2 PUSH2 0x1439 JUMP JUMPDEST DUP3 ADD SWAP2 SWAP1 PUSH1 0x0 MSTORE PUSH1 0x20 PUSH1 0x0 KECCAK256 SWAP1 JUMPDEST DUP2 SLOAD DUP2 MSTORE SWAP1 PUSH1 0x1 ADD SWAP1 PUSH1 0x20 ADD DUP1 DUP4 GT PUSH2 0x141C JUMPI DUP3 SWAP1 SUB PUSH1 0x1F AND DUP3 ADD SWAP2 JUMPDEST POP POP POP POP POP DUP2 MSTORE PUSH1 0x20 ADD SWAP1 PUSH1 0x1 ADD SWAP1 PUSH2 0x13A1 JUMP JUMPDEST POP POP POP POP DUP2 MSTORE PUSH1 0x20 ADD PUSH1 0xB DUP3 ADD DUP1 SLOAD DUP1 PUSH1 0x20 MUL PUSH1 0x20 ADD PUSH1 0x40 MLOAD SWAP1 DUP2 ADD PUSH1 0x40 MSTORE DUP1 SWAP3 SWAP2 SWAP1 DUP2 DUP2 MSTORE PUSH1 0x20 ADD DUP3 DUP1 SLOAD DUP1 ISZERO PUSH2 0x14AE JUMPI PUSH1 0x20 MUL DUP3 ADD SWAP2 SWAP1 PUSH1 0x0 MSTORE PUSH1 0x20 PUSH1 0x0 KECCAK256 SWAP1 JUMPDEST DUP2 SLOAD PUSH1 0x1 PUSH1 0x1 PUSH1 0xA0 SHL SUB AND DUP2 MSTORE PUSH1 0x1 SWAP1 SWAP2 ADD SWAP1 PUSH1 0x20 ADD DUP1 DUP4 GT PUSH2 0x1490 JUMPI JUMPDEST POP POP POP POP POP DUP2 MSTORE PUSH1 0x20 ADD PUSH1 0xC DUP3 ADD DUP1 SLOAD DUP1 PUSH1 0x20 MUL PUSH1 0x20 ADD PUSH1 0x40 MLOAD SWAP1 DUP2 ADD PUSH1 0x40 MSTORE DUP1 SWAP3 SWAP2 SWAP1 DUP2 DUP2 MSTORE PUSH1 0x20 ADD PUSH1 0x0 SWAP1 JUMPDEST DUP3 DUP3 LT ISZERO PUSH2 0x167E JUMPI DUP4 DUP3 SWAP1 PUSH1 0x0 MSTORE PUSH1 0x20 PUSH1 0x0 KECCAK256 SWAP1 PUSH1 0x6 MUL ADD PUSH1 0x40 MLOAD DUP1 PUSH1 0xE0 ADD PUSH1 0x40 MSTORE SWAP1 DUP2 PUSH1 0x0 DUP3 ADD DUP1 SLOAD PUSH2 0x150F SWAP1 PUSH2 0x3017 JUMP JUMPDEST DUP1 PUSH1 0x1F ADD PUSH1 0x20 DUP1 SWAP2 DIV MUL PUSH1 0x20 ADD PUSH1 0x40 MLOAD SWAP1 DUP2 ADD PUSH1 0x40 MSTORE DUP1 SWAP3 SWAP2 SWAP1 DUP2 DUP2 MSTORE PUSH1 0x20 ADD DUP3 DUP1 SLOAD PUSH2 0x153B SWAP1 PUSH2 0x3017 JUMP JUMPDEST DUP1 ISZERO PUSH2 0x1588 JUMPI DUP1 PUSH1 0x1F LT PUSH2 0x155D JUMPI PUSH2 0x100 DUP1 DUP4 SLOAD DIV MUL DUP4 MSTORE SWAP2 PUSH1 0x20 ADD SWAP2 PUSH2 0x1588 JUMP JUMPDEST DUP3 ADD SWAP2 SWAP1 PUSH1 0x0 MSTORE PUSH1 0x20 PUSH1 0x0 KECCAK256 SWAP1 JUMPDEST DUP2 SLOAD DUP2 MSTORE SWAP1 PUSH1 0x1 ADD SWAP1 PUSH1 0x20 ADD DUP1 DUP4 GT PUSH2 0x156B JUMPI DUP3 SWAP1 SUB PUSH1 0x1F AND DUP3 ADD SWAP2 JUMPDEST POP POP POP SWAP2 DUP4 MSTORE POP POP PUSH1 0x1 DUP3 ADD SLOAD PUSH1 0x20 DUP3 ADD MSTORE PUSH1 0x2 DUP3 ADD SLOAD PUSH1 0xFF DUP1 DUP3 AND ISZERO ISZERO PUSH1 0x40 DUP5 ADD MSTORE PUSH2 0x100 SWAP1 SWAP2 DIV AND ISZERO ISZERO PUSH1 0x60 DUP3 ADD MSTORE PUSH1 0x3 DUP3 ADD DUP1 SLOAD PUSH1 0x80 SWAP1 SWAP3 ADD SWAP2 PUSH2 0x15CE SWAP1 PUSH2 0x3017 JUMP JUMPDEST DUP1 PUSH1 0x1F ADD PUSH1 0x20 DUP1 SWAP2 DIV MUL PUSH1 0x20 ADD PUSH1 0x40 MLOAD SWAP1 DUP2 ADD PUSH1 0x40 MSTORE DUP1 SWAP3 SWAP2 SWAP1 DUP2 DUP2 MSTORE PUSH1 0x20 ADD DUP3 DUP1 SLOAD PUSH2 0x15FA SWAP1 PUSH2 0x3017 JUMP JUMPDEST DUP1 ISZERO PUSH2 0x1647 JUMPI DUP1 PUSH1 0x1F LT PUSH2 0x161C JUMPI PUSH2 0x100 DUP1 DUP4 SLOAD DIV MUL DUP4 MSTORE SWAP2 PUSH1 0x20 ADD SWAP2 PUSH2 0x1647 JUMP JUMPDEST DUP3 ADD SWAP2 SWAP1 PUSH1 0x0 MSTORE PUSH1 0x20 PUSH1 0x0 KECCAK256 SWAP1 JUMPDEST DUP2 SLOAD DUP2 MSTORE SWAP1 PUSH1 0x1 ADD SWAP1 PUSH1 0x20 ADD DUP1 DUP4 GT PUSH2 0x162A JUMPI DUP3 SWAP1 SUB PUSH1 0x1F AND DUP3 ADD SWAP2 JUMPDEST POP POP POP SWAP2 DUP4 MSTORE POP POP PUSH1 0x4 DUP3 ADD SLOAD PUSH1 0x20 DUP1 DUP4 ADD SWAP2 SWAP1 SWAP2 MSTORE PUSH1 0x5 SWAP1 SWAP3 ADD SLOAD PUSH1 0xFF AND ISZERO ISZERO PUSH1 0x40 SWAP1 SWAP2 ADD MSTORE SWAP1 DUP3 MSTORE PUSH1 0x1 SWAP3 SWAP1 SWAP3 ADD SWAP2 ADD PUSH2 0x14DC JUMP JUMPDEST POP POP POP POP DUP2 MSTORE PUSH1 0x20 ADD PUSH1 0xD DUP3 ADD SLOAD DUP2 MSTORE PUSH1 0x20 ADD PUSH1 0xE DUP3 ADD DUP1 SLOAD PUSH2 0x16A0 SWAP1 PUSH2 0x3017 JUMP JUMPDEST DUP1 PUSH1 0x1F ADD PUSH1 0x20 DUP1 SWAP2 DIV MUL PUSH1 0x20 ADD PUSH1 0x40 MLOAD SWAP1 DUP2 ADD PUSH1 0x40 MSTORE DUP1 SWAP3 SWAP2 SWAP1 DUP2 DUP2 MSTORE PUSH1 0x20 ADD DUP3 DUP1 SLOAD PUSH2 0x16CC SWAP1 PUSH2 0x3017 JUMP JUMPDEST DUP1 ISZERO PUSH2 0x1719 JUMPI DUP1 PUSH1 0x1F LT PUSH2 0x16EE JUMPI PUSH2 0x100 DUP1 DUP4 SLOAD DIV MUL DUP4 MSTORE SWAP2 PUSH1 0x20 ADD SWAP2 PUSH2 0x1719 JUMP JUMPDEST DUP3 ADD SWAP2 SWAP1 PUSH1 0x0 MSTORE PUSH1 0x20 PUSH1 0x0 KECCAK256 SWAP1 JUMPDEST DUP2 SLOAD DUP2 MSTORE SWAP1 PUSH1 0x1 ADD SWAP1 PUSH1 0x20 ADD DUP1 DUP4 GT PUSH2 0x16FC JUMPI DUP3 SWAP1 SUB PUSH1 0x1F AND DUP3 ADD SWAP2 JUMPDEST POP POP POP POP POP DUP2 MSTORE PUSH1 0x20 ADD PUSH1 0xF DUP3 ADD DUP1 SLOAD PUSH2 0x1732 SWAP1 PUSH2 0x3017 JUMP JUMPDEST DUP1 PUSH1 0x1F ADD PUSH1 0x20 DUP1 SWAP2 DIV MUL PUSH1 0x20 ADD PUSH1 0x40 MLOAD SWAP1 DUP2 ADD PUSH1 0x40 MSTORE DUP1 SWAP3 SWAP2 SWAP1 DUP2 DUP2 MSTORE PUSH1 0x20 ADD DUP3 DUP1 SLOAD PUSH2 0x175E SWAP1 PUSH2 0x3017 JUMP JUMPDEST DUP1 ISZERO PUSH2 0x17AB JUMPI DUP1 PUSH1 0x1F LT PUSH2 0x1780 JUMPI PUSH2 0x100 DUP1 DUP4 SLOAD DIV MUL DUP4 MSTORE SWAP2 PUSH1 0x20 ADD SWAP2 PUSH2 0x17AB JUMP JUMPDEST DUP3 ADD SWAP2 SWAP1 PUSH1 0x0 MSTORE PUSH1 0x20 PUSH1 0x0 KECCAK256 SWAP1 JUMPDEST DUP2 SLOAD DUP2 MSTORE SWAP1 PUSH1 0x1 ADD SWAP1 PUSH1 0x20 ADD DUP1 DUP4 GT PUSH2 0x178E JUMPI DUP3 SWAP1 SUB PUSH1 0x1F AND DUP3 ADD SWAP2 JUMPDEST POP POP POP POP POP DUP2 MSTORE PUSH1 0x20 ADD PUSH1 0x10 DUP3 ADD DUP1 SLOAD DUP1 PUSH1 0x20 MUL PUSH1 0x20 ADD PUSH1 0x40 MLOAD SWAP1 DUP2 ADD PUSH1 0x40 MSTORE DUP1 SWAP3 SWAP2 SWAP1 DUP2 DUP2 MSTORE PUSH1 0x20 ADD DUP3 DUP1 SLOAD DUP1 ISZERO PUSH2 0x180D JUMPI PUSH1 0x20 MUL DUP3 ADD SWAP2 SWAP1 PUSH1 0x0 MSTORE PUSH1 0x20 PUSH1 0x0 KECCAK256 SWAP1 JUMPDEST DUP2 SLOAD PUSH1 0x1 PUSH1 0x1 PUSH1 0xA0 SHL SUB AND DUP2 MSTORE PUSH1 0x1 SWAP1 SWAP2 ADD SWAP1 PUSH1 0x20 ADD DUP1 DUP4 GT PUSH2 0x17EF JUMPI JUMPDEST POP POP POP POP POP DUP2 MSTORE POP POP SWAP1 POP SWAP2 SWAP1 POP JUMP JUMPDEST PUSH1 0x1 PUSH1 0x1 PUSH1 0xA0 SHL SUB DUP2 AND PUSH1 0x0 SWAP1 DUP2 MSTORE PUSH1 0x5 PUSH1 0x20 SWAP1 DUP2 MSTORE PUSH1 0x40 SWAP2 DUP3 SWAP1 KECCAK256 DUP1 SLOAD DUP4 MLOAD DUP2 DUP5 MUL DUP2 ADD DUP5 ADD SWAP1 SWAP5 MSTORE DUP1 DUP5 MSTORE PUSH1 0x60 SWAP4 SWAP3 DUP4 ADD DUP3 DUP3 DUP1 ISZERO PUSH2 0x187D JUMPI PUSH1 0x20 MUL DUP3 ADD SWAP2 SWAP1 PUSH1 0x0 MSTORE PUSH1 0x20 PUSH1 0x0 KECCAK256 SWAP1 JUMPDEST DUP2 SLOAD DUP2 MSTORE PUSH1 0x20 ADD SWAP1 PUSH1 0x1 ADD SWAP1 DUP1 DUP4 GT PUSH2 0x1869 JUMPI JUMPDEST POP POP POP POP POP SWAP1 POP SWAP2 SWAP1 POP JUMP JUMPDEST PUSH2 0x18D4 PUSH1 0x40 MLOAD DUP1 PUSH1 0xE0 ADD PUSH1 0x40 MSTORE DUP1 PUSH1 0x0 DUP2 MSTORE PUSH1 0x20 ADD PUSH1 0x0 PUSH1 0x1 PUSH1 0x1 PUSH1 0xA0 SHL SUB AND DUP2 MSTORE PUSH1 0x20 ADD PUSH1 0x60 DUP2 MSTORE PUSH1 0x20 ADD PUSH1 0x60 DUP2 MSTORE PUSH1 0x20 ADD PUSH1 0x0 DUP2 MSTORE PUSH1 0x20 ADD PUSH1 0x0 DUP2 MSTORE PUSH1 0x20 ADD PUSH1 0x0 ISZERO ISZERO DUP2 MSTORE POP SWAP1 JUMP JUMPDEST PUSH1 0x0 DUP3 DUP2 MSTORE PUSH1 0x2 PUSH1 0x20 DUP2 DUP2 MSTORE PUSH1 0x40 SWAP3 DUP4 SWAP1 KECCAK256 DUP4 MLOAD PUSH1 0xE0 DUP2 ADD DUP6 MSTORE DUP2 SLOAD DUP2 MSTORE PUSH1 0x1 DUP3 ADD SLOAD PUSH1 0x1 PUSH1 0x1 PUSH1 0xA0 SHL SUB AND SWAP3 DUP2 ADD SWAP3 SWAP1 SWAP3 MSTORE SWAP2 DUP3 ADD DUP1 SLOAD SWAP3 SWAP4 SWAP2 SWAP3 SWAP2 DUP4 ADD SWAP2 PUSH2 0x191D SWAP1 PUSH2 0x3017 JUMP JUMPDEST DUP1 PUSH1 0x1F ADD PUSH1 0x20 DUP1 SWAP2 DIV MUL PUSH1 0x20 ADD PUSH1 0x40 MLOAD SWAP1 DUP2 ADD PUSH1 0x40 MSTORE DUP1 SWAP3 SWAP2 SWAP1 DUP2 DUP2 MSTORE PUSH1 0x20 ADD DUP3 DUP1 SLOAD PUSH2 0x1949 SWAP1 PUSH2 0x3017 JUMP JUMPDEST DUP1 ISZERO PUSH2 0x1996 JUMPI DUP1 PUSH1 0x1F LT PUSH2 0x196B JUMPI PUSH2 0x100 DUP1 DUP4 SLOAD DIV MUL DUP4 MSTORE SWAP2 PUSH1 0x20 ADD SWAP2 PUSH2 0x1996 JUMP JUMPDEST DUP3 ADD SWAP2 SWAP1 PUSH1 0x0 MSTORE PUSH1 0x20 PUSH1 0x0 KECCAK256 SWAP1 JUMPDEST DUP2 SLOAD DUP2 MSTORE SWAP1 PUSH1 0x1 ADD SWAP1 PUSH1 0x20 ADD DUP1 DUP4 GT PUSH2 0x1979 JUMPI DUP3 SWAP1 SUB PUSH1 0x1F AND DUP3 ADD SWAP2 JUMPDEST POP POP POP POP POP DUP2 MSTORE PUSH1 0x20 ADD DUP3 PUSH1 0x4 ADD DUP1 SLOAD PUSH2 0x19AF SWAP1 PUSH2 0x3017 JUMP JUMPDEST DUP1 PUSH1 0x1F ADD PUSH1 0x20 DUP1 SWAP2 DIV MUL PUSH1 0x20 ADD PUSH1 0x40 MLOAD SWAP1 DUP2 ADD PUSH1 0x40 MSTORE DUP1 SWAP3 SWAP2 SWAP1 DUP2 DUP2 MSTORE PUSH1 0x20 ADD DUP3 DUP1 SLOAD PUSH2 0x19DB SWAP1 PUSH2 0x3017 JUMP JUMPDEST DUP1 ISZERO PUSH2 0x1A28 JUMPI DUP1 PUSH1 0x1F LT PUSH2 0x19FD JUMPI PUSH2 0x100 DUP1 DUP4 SLOAD DIV MUL DUP4 MSTORE SWAP2 PUSH1 0x20 ADD SWAP2 PUSH2 0x1A28 JUMP JUMPDEST DUP3 ADD SWAP2 SWAP1 PUSH1 0x0 MSTORE PUSH1 0x20 PUSH1 0x0 KECCAK256 SWAP1 JUMPDEST DUP2 SLOAD DUP2 MSTORE SWAP1 PUSH1 0x1 ADD SWAP1 PUSH1 0x20 ADD DUP1 DUP4 GT PUSH2 0x1A0B JUMPI DUP3 SWAP1 SUB PUSH1 0x1F AND DUP3 ADD SWAP2 JUMPDEST POP POP POP SWAP2 DUP4 MSTORE POP POP PUSH1 0x5 DUP4 ADD SLOAD PUSH1 0x20 DUP3 ADD MSTORE PUSH1 0x6 DUP4 ADD SLOAD PUSH1 0x40 DUP3 ADD MSTORE PUSH1 0x9 SWAP1 SWAP3 ADD SLOAD PUSH1 0xFF AND ISZERO ISZERO PUSH1 0x60 SWAP1 SWAP3 ADD SWAP2 SWAP1 SWAP2 MSTORE SWAP3 SWAP2 POP POP JUMP JUMPDEST PUSH1 0x0 DUP1 SLOAD PUSH1 0xFF AND PUSH2 0x1AB1 JUMPI PUSH1 0x40 MLOAD PUSH3 0x461BCD PUSH1 0xE5 SHL DUP2 MSTORE PUSH1 0x20 PUSH1 0x4 DUP3 ADD MSTORE PUSH1 0x19 PUSH1 0x24 DUP3 ADD MSTORE PUSH32 0x436F6E7472616374206973206E6F742061637469766174656400000000000000 PUSH1 0x44 DUP3 ADD MSTORE PUSH1 0x64 ADD PUSH2 0x402 JUMP JUMPDEST PUSH1 0x0 DUP11 MLOAD GT PUSH2 0x1AFA JUMPI PUSH1 0x40 MLOAD PUSH3 0x461BCD PUSH1 0xE5 SHL DUP2 MSTORE PUSH1 0x20 PUSH1 0x4 DUP3 ADD MSTORE PUSH1 0x15 PUSH1 0x24 DUP3 ADD MSTORE PUSH21 0x5469746C652063616E6E6F7420626520656D707479 PUSH1 0x58 SHL PUSH1 0x44 DUP3 ADD MSTORE PUSH1 0x64 ADD PUSH2 0x402 JUMP JUMPDEST PUSH1 0x0 DUP8 GT PUSH2 0x1B55 JUMPI PUSH1 0x40 MLOAD PUSH3 0x461BCD PUSH1 0xE5 SHL DUP2 MSTORE PUSH1 0x20 PUSH1 0x4 DUP3 ADD MSTORE PUSH1 0x22 PUSH1 0x24 DUP3 ADD MSTORE PUSH32 0x476F616C20616D6F756E74206D7573742062652067726561746572207468616E PUSH1 0x44 DUP3 ADD MSTORE PUSH2 0x203 PUSH1 0xF4 SHL PUSH1 0x64 DUP3 ADD MSTORE PUSH1 0x84 ADD PUSH2 0x402 JUMP JUMPDEST PUSH1 0x0 DUP7 GT PUSH2 0x1BA5 JUMPI PUSH1 0x40 MLOAD PUSH3 0x461BCD PUSH1 0xE5 SHL DUP2 MSTORE PUSH1 0x20 PUSH1 0x4 DUP3 ADD MSTORE PUSH1 0x1F PUSH1 0x24 DUP3 ADD MSTORE PUSH32 0x4475726174696F6E206D7573742062652067726561746572207468616E203000 PUSH1 0x44 DUP3 ADD MSTORE PUSH1 0x64 ADD PUSH2 0x402 JUMP JUMPDEST PUSH1 0x0 DUP5 MLOAD GT PUSH2 0x1C01 JUMPI PUSH1 0x40 MLOAD PUSH3 0x461BCD PUSH1 0xE5 SHL DUP2 MSTORE PUSH1 0x20 PUSH1 0x4 DUP3 ADD MSTORE PUSH1 0x22 PUSH1 0x24 DUP3 ADD MSTORE PUSH32 0x4174206C65617374206F6E65206D696C6573746F6E6520697320726571756972 PUSH1 0x44 DUP3 ADD MSTORE PUSH2 0x1959 PUSH1 0xF2 SHL PUSH1 0x64 DUP3 ADD MSTORE PUSH1 0x84 ADD PUSH2 0x402 JUMP JUMPDEST PUSH1 0x1 DUP1 SLOAD PUSH1 0x0 SWAP2 DUP3 PUSH2 0x1C12 DUP4 PUSH2 0x31C3 JUMP JUMPDEST SWAP1 SWAP2 SSTORE POP PUSH1 0x0 DUP2 DUP2 MSTORE PUSH1 0x2 PUSH1 0x20 DUP2 SWAP1 MSTORE PUSH1 0x40 SWAP1 SWAP2 KECCAK256 DUP3 DUP2 SSTORE PUSH1 0x1 DUP2 ADD DUP1 SLOAD PUSH1 0x1 PUSH1 0x1 PUSH1 0xA0 SHL SUB NOT AND CALLER OR SWAP1 SSTORE SWAP2 SWAP3 POP DUP2 ADD PUSH2 0x1C4D DUP14 DUP3 PUSH2 0x30ED JUMP JUMPDEST POP PUSH1 0x3 DUP2 ADD PUSH2 0x1C5C DUP13 DUP3 PUSH2 0x30ED JUMP JUMPDEST POP PUSH1 0x4 DUP2 ADD PUSH2 0x1C6B DUP12 DUP3 PUSH2 0x30ED JUMP JUMPDEST POP PUSH1 0x5 DUP2 ADD DUP10 SWAP1 SSTORE PUSH1 0x7 DUP2 ADD DUP9 SWAP1 SSTORE TIMESTAMP PUSH1 0x8 DUP3 ADD SSTORE PUSH1 0x9 DUP2 ADD DUP1 SLOAD PUSH1 0xFF NOT AND PUSH1 0x1 OR SWAP1 SSTORE DUP7 MLOAD PUSH2 0x1CA4 SWAP1 PUSH1 0xA DUP4 ADD SWAP1 PUSH1 0x20 DUP11 ADD SWAP1 PUSH2 0x2311 JUMP JUMPDEST POP PUSH1 0xF DUP2 ADD PUSH2 0x1CB3 DUP7 DUP3 PUSH2 0x30ED JUMP JUMPDEST POP DUP4 MLOAD PUSH2 0x1CC9 SWAP1 PUSH1 0x10 DUP4 ADD SWAP1 PUSH1 0x20 DUP8 ADD SWAP1 PUSH2 0x2367 JUMP JUMPDEST POP PUSH1 0x0 JUMPDEST DUP7 MLOAD DUP2 LT ISZERO PUSH2 0x1DA3 JUMPI DUP2 PUSH1 0xC ADD DUP8 DUP3 DUP2 MLOAD DUP2 LT PUSH2 0x1CEC JUMPI PUSH2 0x1CEC PUSH2 0x3088 JUMP JUMPDEST PUSH1 0x20 SWAP1 DUP2 MUL SWAP2 SWAP1 SWAP2 ADD DUP2 ADD MLOAD DUP3 SLOAD PUSH1 0x1 DUP2 ADD DUP5 SSTORE PUSH1 0x0 SWAP4 DUP5 MSTORE SWAP2 SWAP1 SWAP3 KECCAK256 DUP3 MLOAD PUSH1 0x6 SWAP1 SWAP3 MUL ADD SWAP1 DUP2 SWAP1 PUSH2 0x1D1E SWAP1 DUP3 PUSH2 0x30ED JUMP JUMPDEST POP PUSH1 0x20 DUP3 ADD MLOAD PUSH1 0x1 DUP3 ADD SSTORE PUSH1 0x40 DUP3 ADD MLOAD PUSH1 0x2 DUP3 ADD DUP1 SLOAD PUSH1 0x60 DUP6 ADD MLOAD ISZERO ISZERO PUSH2 0x100 MUL PUSH2 0xFF00 NOT SWAP4 ISZERO ISZERO SWAP4 SWAP1 SWAP4 AND PUSH2 0xFFFF NOT SWAP1 SWAP2 AND OR SWAP2 SWAP1 SWAP2 OR SWAP1 SSTORE PUSH1 0x80 DUP3 ADD MLOAD PUSH1 0x3 DUP3 ADD SWAP1 PUSH2 0x1D6C SWAP1 DUP3 PUSH2 0x30ED JUMP JUMPDEST POP PUSH1 0xA0 DUP3 ADD MLOAD PUSH1 0x4 DUP3 ADD SSTORE PUSH1 0xC0 SWAP1 SWAP2 ADD MLOAD PUSH1 0x5 SWAP1 SWAP2 ADD DUP1 SLOAD PUSH1 0xFF NOT AND SWAP2 ISZERO ISZERO SWAP2 SWAP1 SWAP2 OR SWAP1 SSTORE DUP1 PUSH2 0x1D9B DUP2 PUSH2 0x31C3 JUMP JUMPDEST SWAP2 POP POP PUSH2 0x1CCD JUMP JUMPDEST POP PUSH1 0x4 PUSH1 0x0 CALLER PUSH1 0x1 PUSH1 0x1 PUSH1 0xA0 SHL SUB AND PUSH1 0x1 PUSH1 0x1 PUSH1 0xA0 SHL SUB AND DUP2 MSTORE PUSH1 0x20 ADD SWAP1 DUP2 MSTORE PUSH1 0x20 ADD PUSH1 0x0 KECCAK256 DUP3 SWAP1 DUP1 PUSH1 0x1 DUP2 SLOAD ADD DUP1 DUP3 SSTORE DUP1 SWAP2 POP POP PUSH1 0x1 SWAP1 SUB SWAP1 PUSH1 0x0 MSTORE PUSH1 0x20 PUSH1 0x0 KECCAK256 ADD PUSH1 0x0 SWAP1 SWAP2 SWAP1 SWAP2 SWAP1 SWAP2 POP SSTORE CALLER PUSH1 0x1 PUSH1 0x1 PUSH1 0xA0 SHL SUB AND DUP3 PUSH32 0xC04C663886CAE794DC52158F70FE6C8EE3B0140D4F48647282F9B693FF688A65 DUP15 PUSH1 0x40 MLOAD PUSH2 0x1E2A SWAP2 SWAP1 PUSH2 0x31DC JUMP JUMPDEST PUSH1 0x40 MLOAD DUP1 SWAP2 SUB SWAP1 LOG3 POP SWAP11 SWAP10 POP POP POP POP POP POP POP POP POP POP JUMP JUMPDEST PUSH1 0x1 PUSH1 0x1 PUSH1 0xA0 SHL SUB DUP2 AND PUSH1 0x0 SWAP1 DUP2 MSTORE PUSH1 0x4 PUSH1 0x20 SWAP1 DUP2 MSTORE PUSH1 0x40 SWAP2 DUP3 SWAP1 KECCAK256 DUP1 SLOAD DUP4 MLOAD DUP2 DUP5 MUL DUP2 ADD DUP5 ADD SWAP1 SWAP5 MSTORE DUP1 DUP5 MSTORE PUSH1 0x60 SWAP4 SWAP3 DUP4 ADD DUP3 DUP3 DUP1 ISZERO PUSH2 0x187D JUMPI PUSH1 0x20 MUL DUP3 ADD SWAP2 SWAP1 PUSH1 0x0 MSTORE PUSH1 0x20 PUSH1 0x0 KECCAK256 SWAP1 DUP2 SLOAD DUP2 MSTORE PUSH1 0x20 ADD SWAP1 PUSH1 0x1 ADD SWAP1 DUP1 DUP4 GT PUSH2 0x1869 JUMPI POP POP POP POP POP SWAP1 POP SWAP2 SWAP1 POP JUMP JUMPDEST PUSH1 0x60 DUP1 PUSH1 0x60 DUP1 PUSH1 0x0 PUSH1 0x2 PUSH1 0x0 DUP8 DUP2 MSTORE PUSH1 0x20 ADD SWAP1 DUP2 MSTORE PUSH1 0x20 ADD PUSH1 0x0 KECCAK256 SWAP1 POP DUP1 PUSH1 0x3 ADD DUP2 PUSH1 0xE ADD DUP3 PUSH1 0xF ADD DUP4 PUSH1 0xA ADD DUP4 DUP1 SLOAD PUSH2 0x1EE4 SWAP1 PUSH2 0x3017 JUMP JUMPDEST DUP1 PUSH1 0x1F ADD PUSH1 0x20 DUP1 SWAP2 DIV MUL PUSH1 0x20 ADD PUSH1 0x40 MLOAD SWAP1 DUP2 ADD PUSH1 0x40 MSTORE DUP1 SWAP3 SWAP2 SWAP1 DUP2 DUP2 MSTORE PUSH1 0x20 ADD DUP3 DUP1 SLOAD PUSH2 0x1F10 SWAP1 PUSH2 0x3017 JUMP JUMPDEST DUP1 ISZERO PUSH2 0x1F5D JUMPI DUP1 PUSH1 0x1F LT PUSH2 0x1F32 JUMPI PUSH2 0x100 DUP1 DUP4 SLOAD DIV MUL DUP4 MSTORE SWAP2 PUSH1 0x20 ADD SWAP2 PUSH2 0x1F5D JUMP JUMPDEST DUP3 ADD SWAP2 SWAP1 PUSH1 0x0 MSTORE PUSH1 0x20 PUSH1 0x0 KECCAK256 SWAP1 JUMPDEST DUP2 SLOAD DUP2 MSTORE SWAP1 PUSH1 0x1 ADD SWAP1 PUSH1 0x20 ADD DUP1 DUP4 GT PUSH2 0x1F40 JUMPI DUP3 SWAP1 SUB PUSH1 0x1F AND DUP3 ADD SWAP2 JUMPDEST POP POP POP POP POP SWAP4 POP DUP3 DUP1 SLOAD PUSH2 0x1F70 SWAP1 PUSH2 0x3017 JUMP JUMPDEST DUP1 PUSH1 0x1F ADD PUSH1 0x20 DUP1 SWAP2 DIV MUL PUSH1 0x20 ADD PUSH1 0x40 MLOAD SWAP1 DUP2 ADD PUSH1 0x40 MSTORE DUP1 SWAP3 SWAP2 SWAP1 DUP2 DUP2 MSTORE PUSH1 0x20 ADD DUP3 DUP1 SLOAD PUSH2 0x1F9C SWAP1 PUSH2 0x3017 JUMP JUMPDEST DUP1 ISZERO PUSH2 0x1FE9 JUMPI DUP1 PUSH1 0x1F LT PUSH2 0x1FBE JUMPI PUSH2 0x100 DUP1 DUP4 SLOAD DIV MUL DUP4 MSTORE SWAP2 PUSH1 0x20 ADD SWAP2 PUSH2 0x1FE9 JUMP JUMPDEST DUP3 ADD SWAP2 SWAP1 PUSH1 0x0 MSTORE PUSH1 0x20 PUSH1 0x0 KECCAK256 SWAP1 JUMPDEST DUP2 SLOAD DUP2 MSTORE SWAP1 PUSH1 0x1 ADD SWAP1 PUSH1 0x20 ADD DUP1 DUP4 GT PUSH2 0x1FCC JUMPI DUP3 SWAP1 SUB PUSH1 0x1F AND DUP3 ADD SWAP2 JUMPDEST POP POP POP POP POP SWAP3 POP DUP2 DUP1 SLOAD PUSH2 0x1FFC SWAP1 PUSH2 0x3017 JUMP JUMPDEST DUP1 PUSH1 0x1F ADD PUSH1 0x20 DUP1 SWAP2 DIV MUL PUSH1 0x20 ADD PUSH1 0x40 MLOAD SWAP1 DUP2 ADD PUSH1 0x40 MSTORE DUP1 SWAP3 SWAP2 SWAP1 DUP2 DUP2 MSTORE PUSH1 0x20 ADD DUP3 DUP1 SLOAD PUSH2 0x2028 SWAP1 PUSH2 0x3017 JUMP JUMPDEST DUP1 ISZERO PUSH2 0x2075 JUMPI DUP1 PUSH1 0x1F LT PUSH2 0x204A JUMPI PUSH2 0x100 DUP1 DUP4 SLOAD DIV MUL DUP4 MSTORE SWAP2 PUSH1 0x20 ADD SWAP2 PUSH2 0x2075 JUMP JUMPDEST DUP3 ADD SWAP2 SWAP1 PUSH1 0x0 MSTORE PUSH1 0x20 PUSH1 0x0 KECCAK256 SWAP1 JUMPDEST DUP2 SLOAD DUP2 MSTORE SWAP1 PUSH1 0x1 ADD SWAP1 PUSH1 0x20 ADD DUP1 DUP4 GT PUSH2 0x2058 JUMPI DUP3 SWAP1 SUB PUSH1 0x1F AND DUP3 ADD SWAP2 JUMPDEST POP POP POP POP POP SWAP2 POP DUP1 DUP1 SLOAD DUP1 PUSH1 0x20 MUL PUSH1 0x20 ADD PUSH1 0x40 MLOAD SWAP1 DUP2 ADD PUSH1 0x40 MSTORE DUP1 SWAP3 SWAP2 SWAP1 DUP2 DUP2 MSTORE PUSH1 0x20 ADD PUSH1 0x0 SWAP1 JUMPDEST DUP3 DUP3 LT ISZERO PUSH2 0x2149 JUMPI DUP4 DUP3 SWAP1 PUSH1 0x0 MSTORE PUSH1 0x20 PUSH1 0x0 KECCAK256 ADD DUP1 SLOAD PUSH2 0x20BC SWAP1 PUSH2 0x3017 JUMP JUMPDEST DUP1 PUSH1 0x1F ADD PUSH1 0x20 DUP1 SWAP2 DIV MUL PUSH1 0x20 ADD PUSH1 0x40 MLOAD SWAP1 DUP2 ADD PUSH1 0x40 MSTORE DUP1 SWAP3 SWAP2 SWAP1 DUP2 DUP2 MSTORE PUSH1 0x20 ADD DUP3 DUP1 SLOAD PUSH2 0x20E8 SWAP1 PUSH2 0x3017 JUMP JUMPDEST DUP1 ISZERO PUSH2 0x2135 JUMPI DUP1 PUSH1 0x1F LT PUSH2 0x210A JUMPI PUSH2 0x100 DUP1 DUP4 SLOAD DIV MUL DUP4 MSTORE SWAP2 PUSH1 0x20 ADD SWAP2 PUSH2 0x2135 JUMP JUMPDEST DUP3 ADD SWAP2 SWAP1 PUSH1 0x0 MSTORE PUSH1 0x20 PUSH1 0x0 KECCAK256 SWAP1 JUMPDEST DUP2 SLOAD DUP2 MSTORE SWAP1 PUSH1 0x1 ADD SWAP1 PUSH1 0x20 ADD DUP1 DUP4 GT PUSH2 0x2118 JUMPI DUP3 SWAP1 SUB PUSH1 0x1F AND DUP3 ADD SWAP2 JUMPDEST POP POP POP POP POP DUP2 MSTORE PUSH1 0x20 ADD SWAP1 PUSH1 0x1 ADD SWAP1 PUSH2 0x209D JUMP JUMPDEST POP POP POP POP SWAP1 POP SWAP5 POP SWAP5 POP SWAP5 POP SWAP5 POP POP SWAP2 SWAP4 POP SWAP2 SWAP4 JUMP JUMPDEST PUSH1 0x0 CALLVALUE GT PUSH2 0x21BE JUMPI PUSH1 0x40 MLOAD PUSH3 0x461BCD PUSH1 0xE5 SHL DUP2 MSTORE PUSH1 0x20 PUSH1 0x4 DUP3 ADD MSTORE PUSH1 0x26 PUSH1 0x24 DUP3 ADD MSTORE PUSH32 0x446F6E6174696F6E20616D6F756E74206D757374206265206772656174657220 PUSH1 0x44 DUP3 ADD MSTORE PUSH6 0x7468616E203 PUSH1 0xD4 SHL PUSH1 0x64 DUP3 ADD MSTORE PUSH1 0x84 ADD PUSH2 0x402 JUMP JUMPDEST PUSH1 0x0 DUP2 DUP2 MSTORE PUSH1 0x2 PUSH1 0x20 MSTORE PUSH1 0x40 SWAP1 KECCAK256 PUSH1 0x9 DUP2 ADD SLOAD PUSH1 0xFF AND PUSH2 0x2219 JUMPI PUSH1 0x40 MLOAD PUSH3 0x461BCD PUSH1 0xE5 SHL DUP2 MSTORE PUSH1 0x20 PUSH1 0x4 DUP3 ADD MSTORE PUSH1 0x16 PUSH1 0x24 DUP3 ADD MSTORE PUSH22 0x43616D706169676E206973206E6F7420616374697665 PUSH1 0x50 SHL PUSH1 0x44 DUP3 ADD MSTORE PUSH1 0x64 ADD PUSH2 0x402 JUMP JUMPDEST DUP1 PUSH1 0x7 ADD SLOAD DUP2 PUSH1 0x8 ADD SLOAD PUSH2 0x222D SWAP2 SWAP1 PUSH2 0x31EF JUMP JUMPDEST TIMESTAMP LT PUSH2 0x2270 JUMPI PUSH1 0x40 MLOAD PUSH3 0x461BCD PUSH1 0xE5 SHL DUP2 MSTORE PUSH1 0x20 PUSH1 0x4 DUP3 ADD MSTORE PUSH1 0x12 PUSH1 0x24 DUP3 ADD MSTORE PUSH18 0x10D85B5C185A59DB881A185CC8195B991959 PUSH1 0x72 SHL PUSH1 0x44 DUP3 ADD MSTORE PUSH1 0x64 ADD PUSH2 0x402 JUMP JUMPDEST CALLVALUE DUP2 PUSH1 0x6 ADD PUSH1 0x0 DUP3 DUP3 SLOAD PUSH2 0x2284 SWAP2 SWAP1 PUSH2 0x31EF JUMP JUMPDEST SWAP1 SWAP2 SSTORE POP POP PUSH1 0xB DUP2 ADD DUP1 SLOAD PUSH1 0x1 DUP2 DUP2 ADD DUP4 SSTORE PUSH1 0x0 SWAP3 DUP4 MSTORE PUSH1 0x20 DUP1 DUP5 KECCAK256 SWAP1 SWAP3 ADD DUP1 SLOAD PUSH1 0x1 PUSH1 0x1 PUSH1 0xA0 SHL SUB NOT AND CALLER SWAP1 DUP2 OR SWAP1 SWAP2 SSTORE DUP1 DUP5 MSTORE PUSH1 0x5 DUP4 MSTORE PUSH1 0x40 DUP1 DUP6 KECCAK256 DUP1 SLOAD SWAP4 DUP5 ADD DUP2 SSTORE DUP6 MSTORE SWAP3 SWAP1 SWAP4 KECCAK256 ADD DUP5 SWAP1 SSTORE MLOAD DUP4 SWAP1 PUSH32 0xB5B4C52969FF7329ECF7EE536409FDA87812B15A8622BC6E8CDEAB3AEE14A26 SWAP1 PUSH2 0x2305 SWAP1 CALLVALUE DUP2 MSTORE PUSH1 0x20 ADD SWAP1 JUMP JUMPDEST PUSH1 0x40 MLOAD DUP1 SWAP2 SUB SWAP1 LOG3 POP POP JUMP JUMPDEST DUP3 DUP1 SLOAD DUP3 DUP3 SSTORE SWAP1 PUSH1 0x0 MSTORE PUSH1 0x20 PUSH1 0x0 KECCAK256 SWAP1 DUP2 ADD SWAP3 DUP3 ISZERO PUSH2 0x2357 JUMPI SWAP2 PUSH1 0x20 MUL DUP3 ADD JUMPDEST DUP3 DUP2 GT ISZERO PUSH2 0x2357 JUMPI DUP3 MLOAD DUP3 SWAP1 PUSH2 0x2347 SWAP1 DUP3 PUSH2 0x30ED JUMP JUMPDEST POP SWAP2 PUSH1 0x20 ADD SWAP2 SWAP1 PUSH1 0x1 ADD SWAP1 PUSH2 0x2331 JUMP JUMPDEST POP PUSH2 0x2363 SWAP3 SWAP2 POP PUSH2 0x23C8 JUMP JUMPDEST POP SWAP1 JUMP JUMPDEST DUP3 DUP1 SLOAD DUP3 DUP3 SSTORE SWAP1 PUSH1 0x0 MSTORE PUSH1 0x20 PUSH1 0x0 KECCAK256 SWAP1 DUP2 ADD SWAP3 DUP3 ISZERO PUSH2 0x23BC JUMPI SWAP2 PUSH1 0x20 MUL DUP3 ADD JUMPDEST DUP3 DUP2 GT ISZERO PUSH2 0x23BC JUMPI DUP3 MLOAD DUP3 SLOAD PUSH1 0x1 PUSH1 0x1 PUSH1 0xA0 SHL SUB NOT AND PUSH1 0x1 PUSH1 0x1 PUSH1 0xA0 SHL SUB SWAP1 SWAP2 AND OR DUP3 SSTORE PUSH1 0x20 SWAP1 SWAP3 ADD SWAP2 PUSH1 0x1 SWAP1 SWAP2 ADD SWAP1 PUSH2 0x2387 JUMP JUMPDEST POP PUSH2 0x2363 SWAP3 SWAP2 POP PUSH2 0x23E5 JUMP JUMPDEST DUP1 DUP3 GT ISZERO PUSH2 0x2363 JUMPI PUSH1 0x0 PUSH2 0x23DC DUP3 DUP3 PUSH2 0x23FA JUMP JUMPDEST POP PUSH1 0x1 ADD PUSH2 0x23C8 JUMP JUMPDEST JUMPDEST DUP1 DUP3 GT ISZERO PUSH2 0x2363 JUMPI PUSH1 0x0 DUP2 SSTORE PUSH1 0x1 ADD PUSH2 0x23E6 JUMP JUMPDEST POP DUP1 SLOAD PUSH2 0x2406 SWAP1 PUSH2 0x3017 JUMP JUMPDEST PUSH1 0x0 DUP3 SSTORE DUP1 PUSH1 0x1F LT PUSH2 0x2416 JUMPI POP POP JUMP JUMPDEST PUSH1 0x1F ADD PUSH1 0x20 SWAP1 DIV SWAP1 PUSH1 0x0 MSTORE PUSH1 0x20 PUSH1 0x0 KECCAK256 SWAP1 DUP2 ADD SWAP1 PUSH2 0x2434 SWAP2 SWAP1 PUSH2 0x23E5 JUMP JUMPDEST POP JUMP JUMPDEST PUSH1 0x0 PUSH1 0x20 DUP3 DUP5 SUB SLT ISZERO PUSH2 0x2449 JUMPI PUSH1 0x0 DUP1 REVERT JUMPDEST POP CALLDATALOAD SWAP2 SWAP1 POP JUMP JUMPDEST PUSH1 0x0 DUP2 MLOAD DUP1 DUP5 MSTORE PUSH1 0x0 JUMPDEST DUP2 DUP2 LT ISZERO PUSH2 0x2476 JUMPI PUSH1 0x20 DUP2 DUP6 ADD DUP2 ADD MLOAD DUP7 DUP4 ADD DUP3 ADD MSTORE ADD PUSH2 0x245A JUMP JUMPDEST POP PUSH1 0x0 PUSH1 0x20 DUP3 DUP7 ADD ADD MSTORE PUSH1 0x20 PUSH1 0x1F NOT PUSH1 0x1F DUP4 ADD AND DUP6 ADD ADD SWAP2 POP POP SWAP3 SWAP2 POP POP JUMP JUMPDEST DUP14 DUP2 MSTORE PUSH1 0x1 PUSH1 0x1 PUSH1 0xA0 SHL SUB DUP14 AND PUSH1 0x20 DUP3 ADD MSTORE PUSH2 0x1A0 PUSH1 0x40 DUP3 ADD MSTORE PUSH1 0x0 PUSH2 0x24C0 PUSH2 0x1A0 DUP4 ADD DUP15 PUSH2 0x2450 JUMP JUMPDEST DUP3 DUP2 SUB PUSH1 0x60 DUP5 ADD MSTORE PUSH2 0x24D2 DUP2 DUP15 PUSH2 0x2450 JUMP JUMPDEST SWAP1 POP DUP3 DUP2 SUB PUSH1 0x80 DUP5 ADD MSTORE PUSH2 0x24E6 DUP2 DUP14 PUSH2 0x2450 JUMP JUMPDEST SWAP1 POP DUP11 PUSH1 0xA0 DUP5 ADD MSTORE DUP10 PUSH1 0xC0 DUP5 ADD MSTORE DUP9 PUSH1 0xE0 DUP5 ADD MSTORE DUP8 PUSH2 0x100 DUP5 ADD MSTORE PUSH2 0x2510 PUSH2 0x120 DUP5 ADD DUP9 ISZERO ISZERO SWAP1 MSTORE JUMP JUMPDEST DUP6 PUSH2 0x140 DUP5 ADD MSTORE DUP3 DUP2 SUB PUSH2 0x160 DUP5 ADD MSTORE PUSH2 0x252A DUP2 DUP7 PUSH2 0x2450 JUMP JUMPDEST SWAP1 POP DUP3 DUP2 SUB PUSH2 0x180 DUP5 ADD MSTORE PUSH2 0x253F DUP2 DUP6 PUSH2 0x2450 JUMP JUMPDEST SWAP2 POP POP SWAP15 SWAP14 POP POP POP POP POP POP POP POP POP POP POP POP POP POP JUMP JUMPDEST DUP1 CALLDATALOAD PUSH1 0x1 PUSH1 0x1 PUSH1 0xA0 SHL SUB DUP2 AND DUP2 EQ PUSH2 0x256B JUMPI PUSH1 0x0 DUP1 REVERT JUMPDEST SWAP2 SWAP1 POP JUMP JUMPDEST PUSH1 0x0 DUP1 PUSH1 0x40 DUP4 DUP6 SUB SLT ISZERO PUSH2 0x2583 JUMPI PUSH1 0x0 DUP1 REVERT JUMPDEST PUSH2 0x258C DUP4 PUSH2 0x2554 JUMP JUMPDEST SWAP5 PUSH1 0x20 SWAP4 SWAP1 SWAP4 ADD CALLDATALOAD SWAP4 POP POP POP JUMP JUMPDEST PUSH4 0x4E487B71 PUSH1 0xE0 SHL PUSH1 0x0 MSTORE PUSH1 0x41 PUSH1 0x4 MSTORE PUSH1 0x24 PUSH1 0x0 REVERT JUMPDEST PUSH1 0x40 MLOAD PUSH1 0xE0 DUP2 ADD PUSH8 0xFFFFFFFFFFFFFFFF DUP2 GT DUP3 DUP3 LT OR ISZERO PUSH2 0x25D3 JUMPI PUSH2 0x25D3 PUSH2 0x259A JUMP JUMPDEST PUSH1 0x40 MSTORE SWAP1 JUMP JUMPDEST PUSH1 0x40 MLOAD PUSH1 0x1F DUP3 ADD PUSH1 0x1F NOT AND DUP2 ADD PUSH8 0xFFFFFFFFFFFFFFFF DUP2 GT DUP3 DUP3 LT OR ISZERO PUSH2 0x2602 JUMPI PUSH2 0x2602 PUSH2 0x259A JUMP JUMPDEST PUSH1 0x40 MSTORE SWAP2 SWAP1 POP JUMP JUMPDEST PUSH1 0x0 DUP3 PUSH1 0x1F DUP4 ADD SLT PUSH2 0x261B JUMPI PUSH1 0x0 DUP1 REVERT JUMPDEST DUP2 CALLDATALOAD PUSH8 0xFFFFFFFFFFFFFFFF DUP2 GT ISZERO PUSH2 0x2635 JUMPI PUSH2 0x2635 PUSH2 0x259A JUMP JUMPDEST PUSH2 0x2648 PUSH1 0x1F DUP3 ADD PUSH1 0x1F NOT AND PUSH1 0x20 ADD PUSH2 0x25D9 JUMP JUMPDEST DUP2 DUP2 MSTORE DUP5 PUSH1 0x20 DUP4 DUP7 ADD ADD GT ISZERO PUSH2 0x265D JUMPI PUSH1 0x0 DUP1 REVERT JUMPDEST DUP2 PUSH1 0x20 DUP6 ADD PUSH1 0x20 DUP4 ADD CALLDATACOPY PUSH1 0x0 SWAP2 DUP2 ADD PUSH1 0x20 ADD SWAP2 SWAP1 SWAP2 MSTORE SWAP4 SWAP3 POP POP POP JUMP JUMPDEST PUSH1 0x0 DUP1 PUSH1 0x0 PUSH1 0x60 DUP5 DUP7 SUB SLT ISZERO PUSH2 0x268F JUMPI PUSH1 0x0 DUP1 REVERT JUMPDEST DUP4 CALLDATALOAD SWAP3 POP PUSH1 0x20 DUP5 ADD CALLDATALOAD SWAP2 POP PUSH1 0x40 DUP5 ADD CALLDATALOAD PUSH8 0xFFFFFFFFFFFFFFFF DUP2 GT ISZERO PUSH2 0x26B4 JUMPI PUSH1 0x0 DUP1 REVERT JUMPDEST PUSH2 0x26C0 DUP7 DUP3 DUP8 ADD PUSH2 0x260A JUMP JUMPDEST SWAP2 POP POP SWAP3 POP SWAP3 POP SWAP3 JUMP JUMPDEST PUSH1 0x0 DUP1 PUSH1 0x0 PUSH1 0x60 DUP5 DUP7 SUB SLT ISZERO PUSH2 0x26DF JUMPI PUSH1 0x0 DUP1 REVERT JUMPDEST POP POP DUP2 CALLDATALOAD SWAP4 PUSH1 0x20 DUP4 ADD CALLDATALOAD SWAP4 POP PUSH1 0x40 SWAP1 SWAP3 ADD CALLDATALOAD SWAP2 SWAP1 POP JUMP JUMPDEST DUP4 ISZERO ISZERO DUP2 MSTORE PUSH1 0x60 PUSH1 0x20 DUP3 ADD MSTORE PUSH1 0x0 PUSH2 0x2711 PUSH1 0x60 DUP4 ADD DUP6 PUSH2 0x2450 JUMP JUMPDEST SWAP1 POP PUSH1 0x1 DUP1 PUSH1 0xA0 SHL SUB DUP4 AND PUSH1 0x40 DUP4 ADD MSTORE SWAP5 SWAP4 POP POP POP POP JUMP JUMPDEST PUSH1 0x0 DUP1 PUSH1 0x40 DUP4 DUP6 SUB SLT ISZERO PUSH2 0x273C JUMPI PUSH1 0x0 DUP1 REVERT JUMPDEST POP POP DUP1 CALLDATALOAD SWAP3 PUSH1 0x20 SWAP1 SWAP2 ADD CALLDATALOAD SWAP2 POP JUMP JUMPDEST DUP1 CALLDATALOAD DUP1 ISZERO ISZERO DUP2 EQ PUSH2 0x256B JUMPI PUSH1 0x0 DUP1 REVERT JUMPDEST PUSH1 0x0 DUP1 PUSH1 0x0 DUP1 PUSH1 0x80 DUP6 DUP8 SUB SLT ISZERO PUSH2 0x2771 JUMPI PUSH1 0x0 DUP1 REVERT JUMPDEST DUP5 CALLDATALOAD SWAP4 POP PUSH1 0x20 DUP6 ADD CALLDATALOAD SWAP3 POP PUSH2 0x2788 PUSH1 0x40 DUP7 ADD PUSH2 0x274B JUMP JUMPDEST SWAP2 POP PUSH1 0x60 DUP6 ADD CALLDATALOAD PUSH8 0xFFFFFFFFFFFFFFFF DUP2 GT ISZERO PUSH2 0x27A4 JUMPI PUSH1 0x0 DUP1 REVERT JUMPDEST PUSH2 0x27B0 DUP8 DUP3 DUP9 ADD PUSH2 0x260A JUMP JUMPDEST SWAP2 POP POP SWAP3 SWAP6 SWAP2 SWAP5 POP SWAP3 POP JUMP JUMPDEST PUSH1 0x0 PUSH1 0x20 DUP1 DUP4 ADD DUP2 DUP5 MSTORE DUP1 DUP6 MLOAD DUP1 DUP4 MSTORE PUSH1 0x40 SWAP3 POP DUP3 DUP7 ADD SWAP2 POP DUP3 DUP2 PUSH1 0x5 SHL DUP8 ADD ADD DUP5 DUP9 ADD PUSH1 0x0 JUMPDEST DUP4 DUP2 LT ISZERO PUSH2 0x283A JUMPI PUSH1 0x3F NOT DUP10 DUP5 SUB ADD DUP6 MSTORE DUP2 MLOAD PUSH1 0x60 DUP2 MLOAD ISZERO ISZERO DUP6 MSTORE DUP9 DUP3 ADD MLOAD DUP2 DUP11 DUP8 ADD MSTORE PUSH2 0x2813 DUP3 DUP8 ADD DUP3 PUSH2 0x2450 JUMP JUMPDEST SWAP3 DUP10 ADD MLOAD PUSH1 0x1 PUSH1 0x1 PUSH1 0xA0 SHL SUB AND SWAP6 DUP10 ADD SWAP6 SWAP1 SWAP6 MSTORE POP SWAP5 DUP8 ADD SWAP5 SWAP3 POP SWAP1 DUP7 ADD SWAP1 PUSH1 0x1 ADD PUSH2 0x27E3 JUMP JUMPDEST POP SWAP1 SWAP9 SWAP8 POP POP POP POP POP POP POP POP JUMP JUMPDEST PUSH1 0x0 DUP2 MLOAD DUP1 DUP5 MSTORE PUSH1 0x20 DUP1 DUP6 ADD DUP1 DUP2 SWAP7 POP DUP4 PUSH1 0x5 SHL DUP2 ADD SWAP2 POP DUP3 DUP7 ADD PUSH1 0x0 JUMPDEST DUP6 DUP2 LT ISZERO PUSH2 0x2890 JUMPI DUP3 DUP5 SUB DUP10 MSTORE PUSH2 0x287E DUP5 DUP4 MLOAD PUSH2 0x2450 JUMP JUMPDEST SWAP9 DUP6 ADD SWAP9 SWAP4 POP SWAP1 DUP5 ADD SWAP1 PUSH1 0x1 ADD PUSH2 0x2866 JUMP JUMPDEST POP SWAP2 SWAP8 SWAP7 POP POP POP POP POP POP POP JUMP JUMPDEST PUSH1 0x0 DUP2 MLOAD DUP1 DUP5 MSTORE PUSH1 0x20 DUP1 DUP6 ADD SWAP5 POP DUP1 DUP5 ADD PUSH1 0x0 JUMPDEST DUP4 DUP2 LT ISZERO PUSH2 0x28D6 JUMPI DUP2 MLOAD PUSH1 0x1 PUSH1 0x1 PUSH1 0xA0 SHL SUB AND DUP8 MSTORE SWAP6 DUP3 ADD SWAP6 SWAP1 DUP3 ADD SWAP1 PUSH1 0x1 ADD PUSH2 0x28B1 JUMP JUMPDEST POP SWAP5 SWAP6 SWAP5 POP POP POP POP POP JUMP JUMPDEST PUSH1 0x0 DUP2 MLOAD DUP1 DUP5 MSTORE PUSH1 0x20 DUP1 DUP6 ADD DUP1 DUP2 SWAP7 POP DUP4 PUSH1 0x5 SHL DUP2 ADD SWAP2 POP DUP3 DUP7 ADD PUSH1 0x0 JUMPDEST DUP6 DUP2 LT ISZERO PUSH2 0x2890 JUMPI DUP3 DUP5 SUB DUP10 MSTORE DUP2 MLOAD PUSH1 0xE0 DUP2 MLOAD DUP2 DUP8 MSTORE PUSH2 0x2921 DUP3 DUP9 ADD DUP3 PUSH2 0x2450 JUMP JUMPDEST SWAP2 POP POP DUP7 DUP3 ADD MLOAD DUP8 DUP8 ADD MSTORE PUSH1 0x40 DUP1 DUP4 ADD MLOAD ISZERO ISZERO DUP2 DUP9 ADD MSTORE POP PUSH1 0x60 DUP1 DUP4 ADD MLOAD ISZERO ISZERO DUP2 DUP9 ADD MSTORE POP PUSH1 0x80 DUP1 DUP4 ADD MLOAD DUP8 DUP4 SUB DUP3 DUP10 ADD MSTORE PUSH2 0x295D DUP4 DUP3 PUSH2 0x2450 JUMP JUMPDEST PUSH1 0xA0 DUP6 DUP2 ADD MLOAD SWAP1 DUP11 ADD MSTORE PUSH1 0xC0 SWAP5 DUP6 ADD MLOAD ISZERO ISZERO SWAP5 SWAP1 SWAP9 ADD SWAP4 SWAP1 SWAP4 MSTORE POP POP POP SWAP8 DUP5 ADD SWAP8 SWAP1 DUP5 ADD SWAP1 PUSH1 0x1 ADD PUSH2 0x28FF JUMP JUMPDEST PUSH1 0x20 DUP2 MSTORE DUP2 MLOAD PUSH1 0x20 DUP3 ADD MSTORE PUSH1 0x0 PUSH1 0x20 DUP4 ADD MLOAD PUSH2 0x29B1 PUSH1 0x40 DUP5 ADD DUP3 PUSH1 0x1 PUSH1 0x1 PUSH1 0xA0 SHL SUB AND SWAP1 MSTORE JUMP JUMPDEST POP PUSH1 0x40 DUP4 ADD MLOAD PUSH2 0x220 DUP1 PUSH1 0x60 DUP6 ADD MSTORE PUSH2 0x29CE PUSH2 0x240 DUP6 ADD DUP4 PUSH2 0x2450 JUMP JUMPDEST SWAP2 POP PUSH1 0x60 DUP6 ADD MLOAD PUSH1 0x1F NOT DUP1 DUP7 DUP6 SUB ADD PUSH1 0x80 DUP8 ADD MSTORE PUSH2 0x29EC DUP5 DUP4 PUSH2 0x2450 JUMP JUMPDEST SWAP4 POP PUSH1 0x80 DUP8 ADD MLOAD SWAP2 POP DUP1 DUP7 DUP6 SUB ADD PUSH1 0xA0 DUP8 ADD MSTORE PUSH2 0x2A09 DUP5 DUP4 PUSH2 0x2450 JUMP JUMPDEST SWAP4 POP PUSH1 0xA0 DUP8 ADD MLOAD PUSH1 0xC0 DUP8 ADD MSTORE PUSH1 0xC0 DUP8 ADD MLOAD PUSH1 0xE0 DUP8 ADD MSTORE PUSH1 0xE0 DUP8 ADD MLOAD SWAP2 POP PUSH2 0x100 DUP3 DUP2 DUP9 ADD MSTORE DUP1 DUP9 ADD MLOAD SWAP3 POP POP PUSH2 0x120 DUP3 DUP2 DUP9 ADD MSTORE DUP1 DUP9 ADD MLOAD SWAP3 POP POP PUSH2 0x140 PUSH2 0x2A54 DUP2 DUP9 ADD DUP5 ISZERO ISZERO SWAP1 MSTORE JUMP JUMPDEST DUP1 DUP9 ADD MLOAD SWAP3 POP POP PUSH2 0x160 DUP2 DUP8 DUP7 SUB ADD DUP2 DUP9 ADD MSTORE PUSH2 0x2A71 DUP6 DUP5 PUSH2 0x2848 JUMP JUMPDEST SWAP5 POP DUP1 DUP9 ADD MLOAD SWAP3 POP POP PUSH2 0x180 DUP2 DUP8 DUP7 SUB ADD DUP2 DUP9 ADD MSTORE PUSH2 0x2A90 DUP6 DUP5 PUSH2 0x289D JUMP JUMPDEST SWAP5 POP DUP1 DUP9 ADD MLOAD SWAP3 POP POP PUSH2 0x1A0 DUP2 DUP8 DUP7 SUB ADD DUP2 DUP9 ADD MSTORE PUSH2 0x2AAF DUP6 DUP5 PUSH2 0x28E1 JUMP JUMPDEST SWAP5 POP DUP1 DUP9 ADD MLOAD SWAP3 POP POP PUSH2 0x1C0 DUP3 DUP2 DUP9 ADD MSTORE DUP1 DUP9 ADD MLOAD SWAP3 POP POP PUSH2 0x1E0 DUP2 DUP8 DUP7 SUB ADD DUP2 DUP9 ADD MSTORE PUSH2 0x2ADD DUP6 DUP5 PUSH2 0x2450 JUMP JUMPDEST SWAP5 POP DUP1 DUP9 ADD MLOAD SWAP3 POP POP PUSH2 0x200 DUP2 DUP8 DUP7 SUB ADD DUP2 DUP9 ADD MSTORE PUSH2 0x2AFC DUP6 DUP5 PUSH2 0x2450 JUMP JUMPDEST SWAP1 DUP9 ADD MLOAD DUP8 DUP3 SUB SWAP1 SWAP3 ADD DUP5 DUP9 ADD MSTORE SWAP4 POP SWAP1 POP PUSH2 0x2B18 DUP4 DUP3 PUSH2 0x289D JUMP JUMPDEST SWAP7 SWAP6 POP POP POP POP POP POP JUMP JUMPDEST PUSH1 0x0 PUSH1 0x20 DUP3 DUP5 SUB SLT ISZERO PUSH2 0x2B34 JUMPI PUSH1 0x0 DUP1 REVERT JUMPDEST PUSH2 0x2B3D DUP3 PUSH2 0x2554 JUMP JUMPDEST SWAP4 SWAP3 POP POP POP JUMP JUMPDEST PUSH1 0x20 DUP1 DUP3 MSTORE DUP3 MLOAD DUP3 DUP3 ADD DUP2 SWAP1 MSTORE PUSH1 0x0 SWAP2 SWAP1 DUP5 DUP3 ADD SWAP1 PUSH1 0x40 DUP6 ADD SWAP1 DUP5 JUMPDEST DUP2 DUP2 LT ISZERO PUSH2 0x2B7C JUMPI DUP4 MLOAD DUP4 MSTORE SWAP3 DUP5 ADD SWAP3 SWAP2 DUP5 ADD SWAP2 PUSH1 0x1 ADD PUSH2 0x2B60 JUMP JUMPDEST POP SWAP1 SWAP7 SWAP6 POP POP POP POP POP POP JUMP JUMPDEST PUSH1 0x20 DUP2 MSTORE DUP2 MLOAD PUSH1 0x20 DUP3 ADD MSTORE PUSH1 0x1 DUP1 PUSH1 0xA0 SHL SUB PUSH1 0x20 DUP4 ADD MLOAD AND PUSH1 0x40 DUP3 ADD MSTORE PUSH1 0x0 PUSH1 0x40 DUP4 ADD MLOAD PUSH1 0xE0 PUSH1 0x60 DUP5 ADD MSTORE PUSH2 0x2BC1 PUSH2 0x100 DUP5 ADD DUP3 PUSH2 0x2450 JUMP JUMPDEST SWAP1 POP PUSH1 0x60 DUP5 ADD MLOAD PUSH1 0x1F NOT DUP5 DUP4 SUB ADD PUSH1 0x80 DUP6 ADD MSTORE PUSH2 0x2BDE DUP3 DUP3 PUSH2 0x2450 JUMP JUMPDEST SWAP2 POP POP PUSH1 0x80 DUP5 ADD MLOAD PUSH1 0xA0 DUP5 ADD MSTORE PUSH1 0xA0 DUP5 ADD MLOAD PUSH1 0xC0 DUP5 ADD MSTORE PUSH1 0xC0 DUP5 ADD MLOAD ISZERO ISZERO PUSH1 0xE0 DUP5 ADD MSTORE DUP1 SWAP2 POP POP SWAP3 SWAP2 POP POP JUMP JUMPDEST PUSH1 0x0 PUSH8 0xFFFFFFFFFFFFFFFF DUP3 GT ISZERO PUSH2 0x2C25 JUMPI PUSH2 0x2C25 PUSH2 0x259A JUMP JUMPDEST POP PUSH1 0x5 SHL PUSH1 0x20 ADD SWAP1 JUMP JUMPDEST PUSH1 0x0 DUP3 PUSH1 0x1F DUP4 ADD SLT PUSH2 0x2C40 JUMPI PUSH1 0x0 DUP1 REVERT JUMPDEST DUP2 CALLDATALOAD PUSH1 0x20 PUSH2 0x2C55 PUSH2 0x2C50 DUP4 PUSH2 0x2C0B JUMP JUMPDEST PUSH2 0x25D9 JUMP JUMPDEST DUP3 DUP2 MSTORE PUSH1 0x5 SWAP3 SWAP1 SWAP3 SHL DUP5 ADD DUP2 ADD SWAP2 DUP2 DUP2 ADD SWAP1 DUP7 DUP5 GT ISZERO PUSH2 0x2C74 JUMPI PUSH1 0x0 DUP1 REVERT JUMPDEST DUP3 DUP7 ADD JUMPDEST DUP5 DUP2 LT ISZERO PUSH2 0x2CB4 JUMPI DUP1 CALLDATALOAD PUSH8 0xFFFFFFFFFFFFFFFF DUP2 GT ISZERO PUSH2 0x2C98 JUMPI PUSH1 0x0 DUP1 DUP2 REVERT JUMPDEST PUSH2 0x2CA6 DUP10 DUP7 DUP4 DUP12 ADD ADD PUSH2 0x260A JUMP JUMPDEST DUP5 MSTORE POP SWAP2 DUP4 ADD SWAP2 DUP4 ADD PUSH2 0x2C78 JUMP JUMPDEST POP SWAP7 SWAP6 POP POP POP POP POP POP JUMP JUMPDEST PUSH1 0x0 DUP3 PUSH1 0x1F DUP4 ADD SLT PUSH2 0x2CD0 JUMPI PUSH1 0x0 DUP1 REVERT JUMPDEST DUP2 CALLDATALOAD PUSH1 0x20 PUSH2 0x2CE0 PUSH2 0x2C50 DUP4 PUSH2 0x2C0B JUMP JUMPDEST DUP3 DUP2 MSTORE PUSH1 0x5 SWAP3 SWAP1 SWAP3 SHL DUP5 ADD DUP2 ADD SWAP2 DUP2 DUP2 ADD SWAP1 DUP7 DUP5 GT ISZERO PUSH2 0x2CFF JUMPI PUSH1 0x0 DUP1 REVERT JUMPDEST DUP3 DUP7 ADD JUMPDEST DUP5 DUP2 LT ISZERO PUSH2 0x2CB4 JUMPI DUP1 CALLDATALOAD PUSH8 0xFFFFFFFFFFFFFFFF DUP1 DUP3 GT ISZERO PUSH2 0x2D24 JUMPI PUSH1 0x0 DUP1 DUP2 REVERT JUMPDEST SWAP1 DUP9 ADD SWAP1 PUSH1 0xE0 DUP3 DUP12 SUB PUSH1 0x1F NOT ADD DUP2 SGT ISZERO PUSH2 0x2D3E JUMPI PUSH1 0x0 DUP1 DUP2 REVERT JUMPDEST PUSH2 0x2D46 PUSH2 0x25B0 JUMP JUMPDEST DUP8 DUP5 ADD CALLDATALOAD DUP4 DUP2 GT ISZERO PUSH2 0x2D58 JUMPI PUSH1 0x0 DUP1 DUP2 REVERT JUMPDEST PUSH2 0x2D66 DUP14 DUP11 DUP4 DUP9 ADD ADD PUSH2 0x260A JUMP JUMPDEST DUP3 MSTORE POP PUSH1 0x40 DUP1 DUP6 ADD CALLDATALOAD DUP10 DUP4 ADD MSTORE PUSH1 0x60 PUSH2 0x2D80 DUP2 DUP8 ADD PUSH2 0x274B JUMP JUMPDEST DUP3 DUP5 ADD MSTORE PUSH1 0x80 SWAP2 POP PUSH2 0x2D93 DUP3 DUP8 ADD PUSH2 0x274B JUMP JUMPDEST SWAP1 DUP4 ADD MSTORE PUSH1 0xA0 DUP6 DUP2 ADD CALLDATALOAD DUP6 DUP2 GT ISZERO PUSH2 0x2DAB JUMPI PUSH1 0x0 DUP1 DUP2 REVERT JUMPDEST PUSH2 0x2DB9 DUP16 DUP13 DUP4 DUP11 ADD ADD PUSH2 0x260A JUMP JUMPDEST DUP4 DUP6 ADD MSTORE POP PUSH1 0xC0 SWAP5 POP DUP5 DUP7 ADD CALLDATALOAD DUP2 DUP5 ADD MSTORE POP POP PUSH2 0x2DD7 DUP3 DUP6 ADD PUSH2 0x274B JUMP JUMPDEST SWAP3 DUP2 ADD SWAP3 SWAP1 SWAP3 MSTORE POP DUP5 MSTORE POP SWAP2 DUP4 ADD SWAP2 DUP4 ADD PUSH2 0x2D03 JUMP JUMPDEST PUSH1 0x0 DUP3 PUSH1 0x1F DUP4 ADD SLT PUSH2 0x2DFE JUMPI PUSH1 0x0 DUP1 REVERT JUMPDEST DUP2 CALLDATALOAD PUSH1 0x20 PUSH2 0x2E0E PUSH2 0x2C50 DUP4 PUSH2 0x2C0B JUMP JUMPDEST DUP3 DUP2 MSTORE PUSH1 0x5 SWAP3 SWAP1 SWAP3 SHL DUP5 ADD DUP2 ADD SWAP2 DUP2 DUP2 ADD SWAP1 DUP7 DUP5 GT ISZERO PUSH2 0x2E2D JUMPI PUSH1 0x0 DUP1 REVERT JUMPDEST DUP3 DUP7 ADD JUMPDEST DUP5 DUP2 LT ISZERO PUSH2 0x2CB4 JUMPI PUSH2 0x2E42 DUP2 PUSH2 0x2554 JUMP JUMPDEST DUP4 MSTORE SWAP2 DUP4 ADD SWAP2 DUP4 ADD PUSH2 0x2E31 JUMP JUMPDEST PUSH1 0x0 DUP1 PUSH1 0x0 DUP1 PUSH1 0x0 DUP1 PUSH1 0x0 DUP1 PUSH1 0x0 PUSH2 0x120 DUP11 DUP13 SUB SLT ISZERO PUSH2 0x2E6E JUMPI PUSH1 0x0 DUP1 REVERT JUMPDEST DUP10 CALLDATALOAD PUSH8 0xFFFFFFFFFFFFFFFF DUP1 DUP3 GT ISZERO PUSH2 0x2E86 JUMPI PUSH1 0x0 DUP1 REVERT JUMPDEST PUSH2 0x2E92 DUP14 DUP4 DUP15 ADD PUSH2 0x260A JUMP JUMPDEST SWAP11 POP PUSH1 0x20 DUP13 ADD CALLDATALOAD SWAP2 POP DUP1 DUP3 GT ISZERO PUSH2 0x2EA8 JUMPI PUSH1 0x0 DUP1 REVERT JUMPDEST PUSH2 0x2EB4 DUP14 DUP4 DUP15 ADD PUSH2 0x260A JUMP JUMPDEST SWAP10 POP PUSH1 0x40 DUP13 ADD CALLDATALOAD SWAP2 POP DUP1 DUP3 GT ISZERO PUSH2 0x2ECA JUMPI PUSH1 0x0 DUP1 REVERT JUMPDEST PUSH2 0x2ED6 DUP14 DUP4 DUP15 ADD PUSH2 0x260A JUMP JUMPDEST SWAP9 POP PUSH1 0x60 DUP13 ADD CALLDATALOAD SWAP8 POP PUSH1 0x80 DUP13 ADD CALLDATALOAD SWAP7 POP PUSH1 0xA0 DUP13 ADD CALLDATALOAD SWAP2 POP DUP1 DUP3 GT ISZERO PUSH2 0x2EFA JUMPI PUSH1 0x0 DUP1 REVERT JUMPDEST PUSH2 0x2F06 DUP14 DUP4 DUP15 ADD PUSH2 0x2C2F JUMP JUMPDEST SWAP6 POP PUSH1 0xC0 DUP13 ADD CALLDATALOAD SWAP2 POP DUP1 DUP3 GT ISZERO PUSH2 0x2F1C JUMPI PUSH1 0x0 DUP1 REVERT JUMPDEST PUSH2 0x2F28 DUP14 DUP4 DUP15 ADD PUSH2 0x2CBF JUMP JUMPDEST SWAP5 POP PUSH1 0xE0 DUP13 ADD CALLDATALOAD SWAP2 POP DUP1 DUP3 GT ISZERO PUSH2 0x2F3E JUMPI PUSH1 0x0 DUP1 REVERT JUMPDEST PUSH2 0x2F4A DUP14 DUP4 DUP15 ADD PUSH2 0x260A JUMP JUMPDEST SWAP4 POP PUSH2 0x100 DUP13 ADD CALLDATALOAD SWAP2 POP DUP1 DUP3 GT ISZERO PUSH2 0x2F61 JUMPI PUSH1 0x0 DUP1 REVERT JUMPDEST POP PUSH2 0x2F6E DUP13 DUP3 DUP14 ADD PUSH2 0x2DED JUMP JUMPDEST SWAP2 POP POP SWAP3 SWAP6 SWAP9 POP SWAP3 SWAP6 SWAP9 POP SWAP3 SWAP6 SWAP9 JUMP JUMPDEST PUSH1 0x80 DUP2 MSTORE PUSH1 0x0 PUSH2 0x2F91 PUSH1 0x80 DUP4 ADD DUP8 PUSH2 0x2450 JUMP JUMPDEST DUP3 DUP2 SUB PUSH1 0x20 DUP5 ADD MSTORE PUSH2 0x2FA3 DUP2 DUP8 PUSH2 0x2450 JUMP JUMPDEST SWAP1 POP DUP3 DUP2 SUB PUSH1 0x40 DUP5 ADD MSTORE PUSH2 0x2FB7 DUP2 DUP7 PUSH2 0x2450 JUMP JUMPDEST SWAP1 POP DUP3 DUP2 SUB PUSH1 0x60 DUP5 ADD MSTORE PUSH2 0x2FCB DUP2 DUP6 PUSH2 0x2848 JUMP JUMPDEST SWAP8 SWAP7 POP POP POP POP POP POP POP JUMP JUMPDEST PUSH1 0x20 DUP1 DUP3 MSTORE PUSH1 0x21 SWAP1 DUP3 ADD MSTORE PUSH32 0x4F6E6C79206F776E65722063616E2063616C6C20746869732066756E6374696F PUSH1 0x40 DUP3 ADD MSTORE PUSH1 0x37 PUSH1 0xF9 SHL PUSH1 0x60 DUP3 ADD MSTORE PUSH1 0x80 ADD SWAP1 JUMP JUMPDEST PUSH1 0x1 DUP2 DUP2 SHR SWAP1 DUP3 AND DUP1 PUSH2 0x302B JUMPI PUSH1 0x7F DUP3 AND SWAP2 POP JUMPDEST PUSH1 0x20 DUP3 LT DUP2 SUB PUSH2 0x304B JUMPI PUSH4 0x4E487B71 PUSH1 0xE0 SHL PUSH1 0x0 MSTORE PUSH1 0x22 PUSH1 0x4 MSTORE PUSH1 0x24 PUSH1 0x0 REVERT JUMPDEST POP SWAP2 SWAP1 POP JUMP JUMPDEST PUSH1 0x20 DUP1 DUP3 MSTORE PUSH1 0x17 SWAP1 DUP3 ADD MSTORE PUSH32 0x496E76616C6964206D696C6573746F6E6520696E646578000000000000000000 PUSH1 0x40 DUP3 ADD MSTORE PUSH1 0x60 ADD SWAP1 JUMP JUMPDEST PUSH4 0x4E487B71 PUSH1 0xE0 SHL PUSH1 0x0 MSTORE PUSH1 0x32 PUSH1 0x4 MSTORE PUSH1 0x24 PUSH1 0x0 REVERT JUMPDEST PUSH1 0x1F DUP3 GT ISZERO PUSH2 0x30E8 JUMPI PUSH1 0x0 DUP2 DUP2 MSTORE PUSH1 0x20 DUP2 KECCAK256 PUSH1 0x1F DUP6 ADD PUSH1 0x5 SHR DUP2 ADD PUSH1 0x20 DUP7 LT ISZERO PUSH2 0x30C5 JUMPI POP DUP1 JUMPDEST PUSH1 0x1F DUP6 ADD PUSH1 0x5 SHR DUP3 ADD SWAP2 POP JUMPDEST DUP2 DUP2 LT ISZERO PUSH2 0x30E4 JUMPI DUP3 DUP2 SSTORE PUSH1 0x1 ADD PUSH2 0x30D1 JUMP JUMPDEST POP POP POP JUMPDEST POP POP POP JUMP JUMPDEST DUP2 MLOAD PUSH8 0xFFFFFFFFFFFFFFFF DUP2 GT ISZERO PUSH2 0x3107 JUMPI PUSH2 0x3107 PUSH2 0x259A JUMP JUMPDEST PUSH2 0x311B DUP2 PUSH2 0x3115 DUP5 SLOAD PUSH2 0x3017 JUMP JUMPDEST DUP5 PUSH2 0x309E JUMP JUMPDEST PUSH1 0x20 DUP1 PUSH1 0x1F DUP4 GT PUSH1 0x1 DUP2 EQ PUSH2 0x3150 JUMPI PUSH1 0x0 DUP5 ISZERO PUSH2 0x3138 JUMPI POP DUP6 DUP4 ADD MLOAD JUMPDEST PUSH1 0x0 NOT PUSH1 0x3 DUP7 SWAP1 SHL SHR NOT AND PUSH1 0x1 DUP6 SWAP1 SHL OR DUP6 SSTORE PUSH2 0x30E4 JUMP JUMPDEST PUSH1 0x0 DUP6 DUP2 MSTORE PUSH1 0x20 DUP2 KECCAK256 PUSH1 0x1F NOT DUP7 AND SWAP2 JUMPDEST DUP3 DUP2 LT ISZERO PUSH2 0x317F JUMPI DUP9 DUP7 ADD MLOAD DUP3 SSTORE SWAP5 DUP5 ADD SWAP5 PUSH1 0x1 SWAP1 SWAP2 ADD SWAP1 DUP5 ADD PUSH2 0x3160 JUMP JUMPDEST POP DUP6 DUP3 LT ISZERO PUSH2 0x319D JUMPI DUP8 DUP6 ADD MLOAD PUSH1 0x0 NOT PUSH1 0x3 DUP9 SWAP1 SHL PUSH1 0xF8 AND SHR NOT AND DUP2 SSTORE JUMPDEST POP POP POP POP POP PUSH1 0x1 SWAP1 DUP2 SHL ADD SWAP1 SSTORE POP JUMP JUMPDEST PUSH4 0x4E487B71 PUSH1 0xE0 SHL PUSH1 0x0 MSTORE PUSH1 0x11 PUSH1 0x4 MSTORE PUSH1 0x24 PUSH1 0x0 REVERT JUMPDEST PUSH1 0x0 PUSH1 0x1 DUP3 ADD PUSH2 0x31D5 JUMPI PUSH2 0x31D5 PUSH2 0x31AD JUMP JUMPDEST POP PUSH1 0x1 ADD SWAP1 JUMP JUMPDEST PUSH1 0x20 DUP2 MSTORE PUSH1 0x0 PUSH2 0x2B3D PUSH1 0x20 DUP4 ADD DUP5 PUSH2 0x2450 JUMP JUMPDEST DUP1 DUP3 ADD DUP1 DUP3 GT ISZERO PUSH2 0xFF7 JUMPI PUSH2 0xFF7 PUSH2 0x31AD JUMP INVALID LOG2 PUSH5 0x6970667358 0x22 SLT KECCAK256 ORIGIN ISZERO SHR LOG4 0x2E PC SWAP1 0xCB REVERT DUP1 SWAP7 DELEGATECALL ADDMOD 0xD4 CHAINID CREATE2 0xDE EXTCODEHASH 0xC4 PUSH27 0xBD3555355341DE30DF684A5E64736F6C6343000813003300000000 "
		},
		"gasEstimates": {
			"creation": {
				"codeDepositCost": "2571200",
				"executionCost": "32039",
				"totalCost": "2603239"
			},
			"external": {
				"activate()": "30123",
				"campaigns(uint256)": "infinite",
				"createCampaign(string,string,string,uint256,uint256,string[],(string,uint256,bool,bool,string,uint256,bool)[],string,address[])": "infinite",
				"deactivate()": "30107",
				"donate(uint256)": "infinite",
				"getActivationStatus()": "2358",
				"getCampaign(uint256)": "infinite",
				"getCampaignCount()": "2359",
				"getCampaignDetails(uint256)": "infinite",
				"getCampaignMetadata(uint256)": "infinite",
				"getMilestoneVotes(uint256,uint256)": "infinite",
				"getUserCampaigns(address)": "infinite",
				"getUserDonations(address)": "infinite",
				"milestoneVotes(uint256,uint256,uint256)": "infinite",
				"releaseMilestoneFunds(uint256,uint256)": "infinite",
				"submitMilestoneCompletion(uint256,uint256,string)": "infinite",
				"userCampaigns(address,uint256)": "4812",
				"userDonations(address,uint256)": "4833",
				"voteMilestone(uint256,uint256,bool,string)": "infinite"
			}
		},
		"methodIdentifiers": {
			"activate()": "0f15f4c0",
			"campaigns(uint256)": "141961bc",
			"createCampaign(string,string,string,uint256,uint256,string[],(string,uint256,bool,bool,string,uint256,bool)[],string,address[])": "98123760",
			"deactivate()": "51b42b00",
			"donate(uint256)": "f14faf6f",
			"getActivationStatus()": "c4c7cbfc",
			"getCampaign(uint256)": "5598f8cc",
			"getCampaignCount()": "6caa9218",
			"getCampaignDetails(uint256)": "d993de62",
			"getCampaignMetadata(uint256)": "8e3dfbbb",
			"getMilestoneVotes(uint256,uint256)": "4eac08ea",
			"getUserCampaigns(address)": "a1e5084c",
			"getUserDonations(address)": "732435b2",
			"milestoneVotes(uint256,uint256,uint256)": "36738c1e",
			"releaseMilestoneFunds(uint256,uint256)": "3de1bb15",
			"submitMilestoneCompletion(uint256,uint256,string)": "31ea5a45",
			"userCampaigns(address,uint256)": "19ac74bd",
			"userDonations(address,uint256)": "4933e631",
			"voteMilestone(uint256,uint256,bool,string)": "44f72bad"
		}
	},
	"abi": [
		{
			"inputs": [],
			"stateMutability": "nonpayable",
			"type": "constructor"
		},
		{
			"anonymous": false,
			"inputs": [
				{
					"indexed": true,
					"internalType": "uint256",
					"name": "campaignId",
					"type": "uint256"
				},
				{
					"indexed": true,
					"internalType": "address",
					"name": "creator",
					"type": "address"
				},
				{
					"indexed": false,
					"internalType": "string",
					"name": "title",
					"type": "string"
				}
			],
			"name": "CampaignCreated",
			"type": "event"
		},
		{
			"anonymous": false,
			"inputs": [
				{
					"indexed": true,
					"internalType": "uint256",
					"name": "campaignId",
					"type": "uint256"
				}
			],
			"name": "CampaignUpdated",
			"type": "event"
		},
		{
			"anonymous": false,
			"inputs": [
				{
					"indexed": true,
					"internalType": "address",
					"name": "activator",
					"type": "address"
				},
				{
					"indexed": false,
					"internalType": "uint256",
					"name": "timestamp",
					"type": "uint256"
				}
			],
			"name": "ContractActivated",
			"type": "event"
		},
		{
			"anonymous": false,
			"inputs": [
				{
					"indexed": true,
					"internalType": "address",
					"name": "deactivator",
					"type": "address"
				},
				{
					"indexed": false,
					"internalType": "uint256",
					"name": "timestamp",
					"type": "uint256"
				}
			],
			"name": "ContractDeactivated",
			"type": "event"
		},
		{
			"anonymous": false,
			"inputs": [
				{
					"indexed": true,
					"internalType": "uint256",
					"name": "campaignId",
					"type": "uint256"
				},
				{
					"indexed": true,
					"internalType": "address",
					"name": "donor",
					"type": "address"
				},
				{
					"indexed": false,
					"internalType": "uint256",
					"name": "amount",
					"type": "uint256"
				}
			],
			"name": "DonationReceived",
			"type": "event"
		},
		{
			"anonymous": false,
			"inputs": [
				{
					"indexed": true,
					"internalType": "uint256",
					"name": "campaignId",
					"type": "uint256"
				},
				{
					"indexed": false,
					"internalType": "uint256",
					"name": "milestoneIndex",
					"type": "uint256"
				},
				{
					"indexed": false,
					"internalType": "uint256",
					"name": "amount",
					"type": "uint256"
				}
			],
			"name": "FundsReleased",
			"type": "event"
		},
		{
			"anonymous": false,
			"inputs": [
				{
					"indexed": true,
					"internalType": "uint256",
					"name": "campaignId",
					"type": "uint256"
				},
				{
					"indexed": false,
					"internalType": "uint256",
					"name": "milestoneIndex",
					"type": "uint256"
				}
			],
			"name": "MilestoneCompleted",
			"type": "event"
		},
		{
			"anonymous": false,
			"inputs": [
				{
					"indexed": true,
					"internalType": "uint256",
					"name": "campaignId",
					"type": "uint256"
				},
				{
					"indexed": false,
					"internalType": "uint256",
					"name": "milestoneIndex",
					"type": "uint256"
				},
				{
					"indexed": false,
					"internalType": "address",
					"name": "voter",
					"type": "address"
				},
				{
					"indexed": false,
					"internalType": "bool",
					"name": "isUpvote",
					"type": "bool"
				}
			],
			"name": "MilestoneVoteSubmitted",
			"type": "event"
		},
		{
			"inputs": [],
			"name": "activate",
			"outputs": [],
			"stateMutability": "nonpayable",
			"type": "function"
		},
		{
			"inputs": [
				{
					"internalType": "uint256",
					"name": "",
					"type": "uint256"
				}
			],
			"name": "campaigns",
			"outputs": [
				{
					"internalType": "uint256",
					"name": "id",
					"type": "uint256"
				},
				{
					"internalType": "address",
					"name": "creator",
					"type": "address"
				},
				{
					"internalType": "string",
					"name": "title",
					"type": "string"
				},
				{
					"internalType": "string",
					"name": "description",
					"type": "string"
				},
				{
					"internalType": "string",
					"name": "category",
					"type": "string"
				},
				{
					"internalType": "uint256",
					"name": "goalAmount",
					"type": "uint256"
				},
				{
					"internalType": "uint256",
					"name": "totalFunded",
					"type": "uint256"
				},
				{
					"internalType": "uint256",
					"name": "duration",
					"type": "uint256"
				},
				{
					"internalType": "uint256",
					"name": "createdAt",
					"type": "uint256"
				},
				{
					"internalType": "bool",
					"name": "isActive",
					"type": "bool"
				},
				{
					"internalType": "uint256",
					"name": "currentMilestone",
					"type": "uint256"
				},
				{
					"internalType": "string",
					"name": "proofOfWork",
					"type": "string"
				},
				{
					"internalType": "string",
					"name": "beneficiaries",
					"type": "string"
				}
			],
			"stateMutability": "view",
			"type": "function"
		},
		{
			"inputs": [
				{
					"internalType": "string",
					"name": "title",
					"type": "string"
				},
				{
					"internalType": "string",
					"name": "description",
					"type": "string"
				},
				{
					"internalType": "string",
					"name": "category",
					"type": "string"
				},
				{
					"internalType": "uint256",
					"name": "goalAmount",
					"type": "uint256"
				},
				{
					"internalType": "uint256",
					"name": "duration",
					"type": "uint256"
				},
				{
					"internalType": "string[]",
					"name": "media",
					"type": "string[]"
				},
				{
					"components": [
						{
							"internalType": "string",
							"name": "name",
							"type": "string"
						},
						{
							"internalType": "uint256",
							"name": "targetAmount",
							"type": "uint256"
						},
						{
							"internalType": "bool",
							"name": "isCompleted",
							"type": "bool"
						},
						{
							"internalType": "bool",
							"name": "isFunded",
							"type": "bool"
						},
						{
							"internalType": "string",
							"name": "proofOfCompletion",
							"type": "string"
						},
						{
							"internalType": "uint256",
							"name": "fundsReleased",
							"type": "uint256"
						},
						{
							"internalType": "bool",
							"name": "isUnderReview",
							"type": "bool"
						}
					],
					"internalType": "struct WowzaRush.Milestone[]",
					"name": "milestones",
					"type": "tuple[]"
				},
				{
					"internalType": "string",
					"name": "beneficiaries",
					"type": "string"
				},
				{
					"internalType": "address[]",
					"name": "stakeholders",
					"type": "address[]"
				}
			],
			"name": "createCampaign",
			"outputs": [
				{
					"internalType": "uint256",
					"name": "",
					"type": "uint256"
				}
			],
			"stateMutability": "nonpayable",
			"type": "function"
		},
		{
			"inputs": [],
			"name": "deactivate",
			"outputs": [],
			"stateMutability": "nonpayable",
			"type": "function"
		},
		{
			"inputs": [
				{
					"internalType": "uint256",
					"name": "campaignId",
					"type": "uint256"
				}
			],
			"name": "donate",
			"outputs": [],
			"stateMutability": "payable",
			"type": "function"
		},
		{
			"inputs": [],
			"name": "getActivationStatus",
			"outputs": [
				{
					"internalType": "bool",
					"name": "",
					"type": "bool"
				}
			],
			"stateMutability": "view",
			"type": "function"
		},
		{
			"inputs": [
				{
					"internalType": "uint256",
					"name": "campaignId",
					"type": "uint256"
				}
			],
			"name": "getCampaign",
			"outputs": [
				{
					"components": [
						{
							"internalType": "uint256",
							"name": "id",
							"type": "uint256"
						},
						{
							"internalType": "address",
							"name": "creator",
							"type": "address"
						},
						{
							"internalType": "string",
							"name": "title",
							"type": "string"
						},
						{
							"internalType": "string",
							"name": "description",
							"type": "string"
						},
						{
							"internalType": "string",
							"name": "category",
							"type": "string"
						},
						{
							"internalType": "uint256",
							"name": "goalAmount",
							"type": "uint256"
						},
						{
							"internalType": "uint256",
							"name": "totalFunded",
							"type": "uint256"
						},
						{
							"internalType": "uint256",
							"name": "duration",
							"type": "uint256"
						},
						{
							"internalType": "uint256",
							"name": "createdAt",
							"type": "uint256"
						},
						{
							"internalType": "bool",
							"name": "isActive",
							"type": "bool"
						},
						{
							"internalType": "string[]",
							"name": "media",
							"type": "string[]"
						},
						{
							"internalType": "address[]",
							"name": "donors",
							"type": "address[]"
						},
						{
							"components": [
								{
									"internalType": "string",
									"name": "name",
									"type": "string"
								},
								{
									"internalType": "uint256",
									"name": "targetAmount",
									"type": "uint256"
								},
								{
									"internalType": "bool",
									"name": "isCompleted",
									"type": "bool"
								},
								{
									"internalType": "bool",
									"name": "isFunded",
									"type": "bool"
								},
								{
									"internalType": "string",
									"name": "proofOfCompletion",
									"type": "string"
								},
								{
									"internalType": "uint256",
									"name": "fundsReleased",
									"type": "uint256"
								},
								{
									"internalType": "bool",
									"name": "isUnderReview",
									"type": "bool"
								}
							],
							"internalType": "struct WowzaRush.Milestone[]",
							"name": "milestones",
							"type": "tuple[]"
						},
						{
							"internalType": "uint256",
							"name": "currentMilestone",
							"type": "uint256"
						},
						{
							"internalType": "string",
							"name": "proofOfWork",
							"type": "string"
						},
						{
							"internalType": "string",
							"name": "beneficiaries",
							"type": "string"
						},
						{
							"internalType": "address[]",
							"name": "stakeholders",
							"type": "address[]"
						}
					],
					"internalType": "struct WowzaRush.Campaign",
					"name": "",
					"type": "tuple"
				}
			],
			"stateMutability": "view",
			"type": "function"
		},
		{
			"inputs": [],
			"name": "getCampaignCount",
			"outputs": [
				{
					"internalType": "uint256",
					"name": "",
					"type": "uint256"
				}
			],
			"stateMutability": "view",
			"type": "function"
		},
		{
			"inputs": [
				{
					"internalType": "uint256",
					"name": "campaignId",
					"type": "uint256"
				}
			],
			"name": "getCampaignDetails",
			"outputs": [
				{
					"internalType": "string",
					"name": "description",
					"type": "string"
				},
				{
					"internalType": "string",
					"name": "proofOfWork",
					"type": "string"
				},
				{
					"internalType": "string",
					"name": "beneficiaries",
					"type": "string"
				},
				{
					"internalType": "string[]",
					"name": "media",
					"type": "string[]"
				}
			],
			"stateMutability": "view",
			"type": "function"
		},
		{
			"inputs": [
				{
					"internalType": "uint256",
					"name": "campaignId",
					"type": "uint256"
				}
			],
			"name": "getCampaignMetadata",
			"outputs": [
				{
					"components": [
						{
							"internalType": "uint256",
							"name": "id",
							"type": "uint256"
						},
						{
							"internalType": "address",
							"name": "creator",
							"type": "address"
						},
						{
							"internalType": "string",
							"name": "title",
							"type": "string"
						},
						{
							"internalType": "string",
							"name": "category",
							"type": "string"
						},
						{
							"internalType": "uint256",
							"name": "goalAmount",
							"type": "uint256"
						},
						{
							"internalType": "uint256",
							"name": "totalFunded",
							"type": "uint256"
						},
						{
							"internalType": "bool",
							"name": "isActive",
							"type": "bool"
						}
					],
					"internalType": "struct WowzaRush.CampaignMetadata",
					"name": "",
					"type": "tuple"
				}
			],
			"stateMutability": "view",
			"type": "function"
		},
		{
			"inputs": [
				{
					"internalType": "uint256",
					"name": "campaignId",
					"type": "uint256"
				},
				{
					"internalType": "uint256",
					"name": "milestoneIndex",
					"type": "uint256"
				}
			],
			"name": "getMilestoneVotes",
			"outputs": [
				{
					"components": [
						{
							"internalType": "bool",
							"name": "isUpvote",
							"type": "bool"
						},
						{
							"internalType": "string",
							"name": "message",
							"type": "string"
						},
						{
							"internalType": "address",
							"name": "voter",
							"type": "address"
						}
					],
					"internalType": "struct WowzaRush.Vote[]",
					"name": "",
					"type": "tuple[]"
				}
			],
			"stateMutability": "view",
			"type": "function"
		},
		{
			"inputs": [
				{
					"internalType": "address",
					"name": "user",
					"type": "address"
				}
			],
			"name": "getUserCampaigns",
			"outputs": [
				{
					"internalType": "uint256[]",
					"name": "",
					"type": "uint256[]"
				}
			],
			"stateMutability": "view",
			"type": "function"
		},
		{
			"inputs": [
				{
					"internalType": "address",
					"name": "user",
					"type": "address"
				}
			],
			"name": "getUserDonations",
			"outputs": [
				{
					"internalType": "uint256[]",
					"name": "",
					"type": "uint256[]"
				}
			],
			"stateMutability": "view",
			"type": "function"
		},
		{
			"inputs": [
				{
					"internalType": "uint256",
					"name": "",
					"type": "uint256"
				},
				{
					"internalType": "uint256",
					"name": "",
					"type": "uint256"
				},
				{
					"internalType": "uint256",
					"name": "",
					"type": "uint256"
				}
			],
			"name": "milestoneVotes",
			"outputs": [
				{
					"internalType": "bool",
					"name": "isUpvote",
					"type": "bool"
				},
				{
					"internalType": "string",
					"name": "message",
					"type": "string"
				},
				{
					"internalType": "address",
					"name": "voter",
					"type": "address"
				}
			],
			"stateMutability": "view",
			"type": "function"
		},
		{
			"inputs": [
				{
					"internalType": "uint256",
					"name": "campaignId",
					"type": "uint256"
				},
				{
					"internalType": "uint256",
					"name": "milestoneIndex",
					"type": "uint256"
				}
			],
			"name": "releaseMilestoneFunds",
			"outputs": [],
			"stateMutability": "nonpayable",
			"type": "function"
		},
		{
			"inputs": [
				{
					"internalType": "uint256",
					"name": "campaignId",
					"type": "uint256"
				},
				{
					"internalType": "uint256",
					"name": "milestoneIndex",
					"type": "uint256"
				},
				{
					"internalType": "string",
					"name": "proofOfCompletion",
					"type": "string"
				}
			],
			"name": "submitMilestoneCompletion",
			"outputs": [],
			"stateMutability": "nonpayable",
			"type": "function"
		},
		{
			"inputs": [
				{
					"internalType": "address",
					"name": "",
					"type": "address"
				},
				{
					"internalType": "uint256",
					"name": "",
					"type": "uint256"
				}
			],
			"name": "userCampaigns",
			"outputs": [
				{
					"internalType": "uint256",
					"name": "",
					"type": "uint256"
				}
			],
			"stateMutability": "view",
			"type": "function"
		},
		{
			"inputs": [
				{
					"internalType": "address",
					"name": "",
					"type": "address"
				},
				{
					"internalType": "uint256",
					"name": "",
					"type": "uint256"
				}
			],
			"name": "userDonations",
			"outputs": [
				{
					"internalType": "uint256",
					"name": "",
					"type": "uint256"
				}
			],
			"stateMutability": "view",
			"type": "function"
		},
		{
			"inputs": [
				{
					"internalType": "uint256",
					"name": "campaignId",
					"type": "uint256"
				},
				{
					"internalType": "uint256",
					"name": "milestoneIndex",
					"type": "uint256"
				},
				{
					"internalType": "bool",
					"name": "isUpvote",
					"type": "bool"
				},
				{
					"internalType": "string",
					"name": "message",
					"type": "string"
				}
			],
			"name": "voteMilestone",
			"outputs": [],
			"stateMutability": "nonpayable",
			"type": "function"
		}
	]
}